{
  "_format": "hh-sol-artifact-1",
  "contractName": "AcroICO",
  "sourceName": "contracts/AcroICO.sol",
  "abi": [
    {
      "inputs": [
        {
          "internalType": "bool",
          "name": "_isTaxable",
          "type": "bool"
        }
      ],
      "stateMutability": "nonpayable",
      "type": "constructor"
    },
    {
      "anonymous": false,
      "inputs": [
        {
          "indexed": true,
          "internalType": "address",
          "name": "owner",
          "type": "address"
        },
        {
          "indexed": true,
          "internalType": "address",
          "name": "spender",
          "type": "address"
        },
        {
          "indexed": false,
          "internalType": "uint256",
          "name": "value",
          "type": "uint256"
        }
      ],
      "name": "Approval",
      "type": "event"
    },
    {
      "anonymous": false,
      "inputs": [
        {
          "indexed": false,
          "internalType": "string",
          "name": "state",
          "type": "string"
        },
        {
          "indexed": false,
          "internalType": "uint256",
          "name": "timestamp",
          "type": "uint256"
        }
      ],
      "name": "ChangeState",
      "type": "event"
    },
    {
      "anonymous": false,
      "inputs": [
        {
          "indexed": false,
          "internalType": "string",
          "name": "currentPhase",
          "type": "string"
        },
        {
          "indexed": false,
          "internalType": "uint256",
          "name": "timestamp",
          "type": "uint256"
        }
      ],
      "name": "PhaseForwardEvent",
      "type": "event"
    },
    {
      "anonymous": false,
      "inputs": [
        {
          "indexed": true,
          "internalType": "address",
          "name": "from",
          "type": "address"
        },
        {
          "indexed": true,
          "internalType": "address",
          "name": "to",
          "type": "address"
        },
        {
          "indexed": false,
          "internalType": "uint256",
          "name": "value",
          "type": "uint256"
        }
      ],
      "name": "Transfer",
      "type": "event"
    },
    {
      "anonymous": false,
      "inputs": [
        {
          "indexed": false,
          "internalType": "address",
          "name": "addr",
          "type": "address"
        }
      ],
      "name": "WhitelistOperations",
      "type": "event"
    },
    {
      "inputs": [],
      "name": "GOAL",
      "outputs": [
        {
          "internalType": "uint256",
          "name": "",
          "type": "uint256"
        }
      ],
      "stateMutability": "view",
      "type": "function"
    },
    {
      "inputs": [],
      "name": "RATE",
      "outputs": [
        {
          "internalType": "uint8",
          "name": "",
          "type": "uint8"
        }
      ],
      "stateMutability": "view",
      "type": "function"
    },
    {
      "inputs": [
        {
          "internalType": "address",
          "name": "owner",
          "type": "address"
        },
        {
          "internalType": "address",
          "name": "spender",
          "type": "address"
        }
      ],
      "name": "allowance",
      "outputs": [
        {
          "internalType": "uint256",
          "name": "",
          "type": "uint256"
        }
      ],
      "stateMutability": "view",
      "type": "function"
    },
    {
      "inputs": [
        {
          "internalType": "address",
          "name": "spender",
          "type": "address"
        },
        {
          "internalType": "uint256",
          "name": "amount",
          "type": "uint256"
        }
      ],
      "name": "approve",
      "outputs": [
        {
          "internalType": "bool",
          "name": "",
          "type": "bool"
        }
      ],
      "stateMutability": "nonpayable",
      "type": "function"
    },
    {
      "inputs": [
        {
          "internalType": "address",
          "name": "account",
          "type": "address"
        }
      ],
      "name": "balanceOf",
      "outputs": [
        {
          "internalType": "uint256",
          "name": "",
          "type": "uint256"
        }
      ],
      "stateMutability": "view",
      "type": "function"
    },
    {
      "inputs": [],
      "name": "buyToken",
      "outputs": [],
      "stateMutability": "payable",
      "type": "function"
    },
    {
      "inputs": [
        {
          "internalType": "address",
          "name": "",
          "type": "address"
        }
      ],
      "name": "contributions",
      "outputs": [
        {
          "internalType": "uint256",
          "name": "",
          "type": "uint256"
        }
      ],
      "stateMutability": "view",
      "type": "function"
    },
    {
      "inputs": [],
      "name": "decimals",
      "outputs": [
        {
          "internalType": "uint8",
          "name": "",
          "type": "uint8"
        }
      ],
      "stateMutability": "view",
      "type": "function"
    },
    {
      "inputs": [
        {
          "internalType": "address",
          "name": "spender",
          "type": "address"
        },
        {
          "internalType": "uint256",
          "name": "subtractedValue",
          "type": "uint256"
        }
      ],
      "name": "decreaseAllowance",
      "outputs": [
        {
          "internalType": "bool",
          "name": "",
          "type": "bool"
        }
      ],
      "stateMutability": "nonpayable",
      "type": "function"
    },
    {
      "inputs": [
        {
          "internalType": "address",
          "name": "spender",
          "type": "address"
        },
        {
          "internalType": "uint256",
          "name": "addedValue",
          "type": "uint256"
        }
      ],
      "name": "increaseAllowance",
      "outputs": [
        {
          "internalType": "bool",
          "name": "",
          "type": "bool"
        }
      ],
      "stateMutability": "nonpayable",
      "type": "function"
    },
    {
      "inputs": [],
      "name": "individualContributionLimit",
      "outputs": [
        {
          "internalType": "uint256",
          "name": "",
          "type": "uint256"
        }
      ],
      "stateMutability": "view",
      "type": "function"
    },
    {
      "inputs": [],
      "name": "isTaxable",
      "outputs": [
        {
          "internalType": "bool",
          "name": "",
          "type": "bool"
        }
      ],
      "stateMutability": "view",
      "type": "function"
    },
    {
      "inputs": [],
      "name": "maximumTotalPrivateContributionLimit",
      "outputs": [
        {
          "internalType": "uint256",
          "name": "",
          "type": "uint256"
        }
      ],
      "stateMutability": "view",
      "type": "function"
    },
    {
      "inputs": [],
      "name": "name",
      "outputs": [
        {
          "internalType": "string",
          "name": "",
          "type": "string"
        }
      ],
      "stateMutability": "view",
      "type": "function"
    },
    {
      "inputs": [],
      "name": "pause",
      "outputs": [
        {
          "internalType": "bool",
          "name": "",
          "type": "bool"
        }
      ],
      "stateMutability": "nonpayable",
      "type": "function"
    },
    {
      "inputs": [],
      "name": "phase",
      "outputs": [
        {
          "internalType": "enum AcroICO.Phase",
          "name": "",
          "type": "uint8"
        }
      ],
      "stateMutability": "view",
      "type": "function"
    },
    {
      "inputs": [],
      "name": "phaseForward",
      "outputs": [],
      "stateMutability": "nonpayable",
      "type": "function"
    },
    {
      "inputs": [
        {
          "internalType": "address",
          "name": "_owner",
          "type": "address"
        }
      ],
      "name": "returnContributions",
      "outputs": [
        {
          "internalType": "uint256",
          "name": "",
          "type": "uint256"
        }
      ],
      "stateMutability": "view",
      "type": "function"
    },
    {
      "inputs": [],
      "name": "returnTotalTaxes",
      "outputs": [
        {
          "internalType": "uint256",
          "name": "",
          "type": "uint256"
        }
      ],
      "stateMutability": "view",
      "type": "function"
    },
    {
      "inputs": [],
      "name": "state",
      "outputs": [
        {
          "internalType": "enum AcroICO.State",
          "name": "",
          "type": "uint8"
        }
      ],
      "stateMutability": "view",
      "type": "function"
    },
    {
      "inputs": [],
      "name": "symbol",
      "outputs": [
        {
          "internalType": "string",
          "name": "",
          "type": "string"
        }
      ],
      "stateMutability": "view",
      "type": "function"
    },
    {
      "inputs": [
        {
          "internalType": "address",
          "name": "",
          "type": "address"
        }
      ],
      "name": "taxes",
      "outputs": [
        {
          "internalType": "uint256",
          "name": "",
          "type": "uint256"
        }
      ],
      "stateMutability": "view",
      "type": "function"
    },
    {
      "inputs": [],
      "name": "totalContributions",
      "outputs": [
        {
          "internalType": "uint256",
          "name": "",
          "type": "uint256"
        }
      ],
      "stateMutability": "view",
      "type": "function"
    },
    {
      "inputs": [],
      "name": "totalSupply",
      "outputs": [
        {
          "internalType": "uint256",
          "name": "",
          "type": "uint256"
        }
      ],
      "stateMutability": "view",
      "type": "function"
    },
    {
      "inputs": [],
      "name": "totalTaxes",
      "outputs": [
        {
          "internalType": "uint256",
          "name": "",
          "type": "uint256"
        }
      ],
      "stateMutability": "view",
      "type": "function"
    },
    {
      "inputs": [],
      "name": "totalTokenSupply",
      "outputs": [
        {
          "internalType": "uint256",
          "name": "",
          "type": "uint256"
        }
      ],
      "stateMutability": "view",
      "type": "function"
    },
    {
      "inputs": [
        {
          "internalType": "address",
          "name": "recipient",
          "type": "address"
        },
        {
          "internalType": "uint256",
          "name": "amount",
          "type": "uint256"
        }
      ],
      "name": "transfer",
      "outputs": [
        {
          "internalType": "bool",
          "name": "",
          "type": "bool"
        }
      ],
      "stateMutability": "nonpayable",
      "type": "function"
    },
    {
      "inputs": [
        {
          "internalType": "address",
          "name": "sender",
          "type": "address"
        },
        {
          "internalType": "address",
          "name": "recipient",
          "type": "address"
        },
        {
          "internalType": "uint256",
          "name": "amount",
          "type": "uint256"
        }
      ],
      "name": "transferFrom",
      "outputs": [
        {
          "internalType": "bool",
          "name": "",
          "type": "bool"
        }
      ],
      "stateMutability": "nonpayable",
      "type": "function"
    },
    {
      "inputs": [
        {
          "internalType": "address",
          "name": "_recipient",
          "type": "address"
        },
        {
          "internalType": "uint256",
          "name": "_amount",
          "type": "uint256"
        }
      ],
      "name": "transferToken",
      "outputs": [
        {
          "internalType": "bool",
          "name": "",
          "type": "bool"
        }
      ],
      "stateMutability": "nonpayable",
      "type": "function"
    },
    {
      "inputs": [],
      "name": "unpause",
      "outputs": [
        {
          "internalType": "bool",
          "name": "",
          "type": "bool"
        }
      ],
      "stateMutability": "nonpayable",
      "type": "function"
    },
    {
      "inputs": [
        {
          "internalType": "address",
          "name": "",
          "type": "address"
        }
      ],
      "name": "whitelist",
      "outputs": [
        {
          "internalType": "bool",
          "name": "",
          "type": "bool"
        }
      ],
      "stateMutability": "view",
      "type": "function"
    },
    {
      "inputs": [
        {
          "internalType": "address[]",
          "name": "_whiteList",
          "type": "address[]"
        }
      ],
      "name": "whitelistedCrowdsale",
      "outputs": [],
      "stateMutability": "nonpayable",
      "type": "function"
    },
    {
      "inputs": [],
      "name": "withdrawTokens",
      "outputs": [],
      "stateMutability": "payable",
      "type": "function"
    }
  ],
  "bytecode": "0x60806040526207a1206005556000600d556000600e556000600f60006101000a81548160ff0219169083151502179055503480156200003d57600080fd5b5060405162003e6238038062003e628339818101604052810190620000639190620004fc565b6040518060400160405280600981526020017f4163726f546f6b656e00000000000000000000000000000000000000000000008152506040518060400160405280600381526020017f41435200000000000000000000000000000000000000000000000000000000008152508160039080519060200190620000e792919062000435565b5080600490805190602001906200010092919062000435565b50505033600660006101000a81548173ffffffffffffffffffffffffffffffffffffffff021916908373ffffffffffffffffffffffffffffffffffffffff160217905550620001823362000159620002a960201b60201c565b600a62000167919062000668565b600554620001769190620007a5565b620002b260201b60201c565b33600f60016101000a81548173ffffffffffffffffffffffffffffffffffffffff021916908373ffffffffffffffffffffffffffffffffffffffff1602179055506000600a60006101000a81548160ff0219169083600281111562000210577f4e487b7100000000000000000000000000000000000000000000000000000000600052602160045260246000fd5b02179055506000600a60016101000a81548160ff0219169083600181111562000262577f4e487b7100000000000000000000000000000000000000000000000000000000600052602160045260246000fd5b021790555080600f60006101000a81548160ff02191690831515021790555069032d26d12e980b600000600b81905550685150ae84a8cdf00000600c81905550506200090d565b60006012905090565b600073ffffffffffffffffffffffffffffffffffffffff168273ffffffffffffffffffffffffffffffffffffffff16141562000325576040517f08c379a00000000000000000000000000000000000000000000000000000000081526004016200031c9062000560565b60405180910390fd5b62000339600083836200042b60201b60201c565b80600260008282546200034d9190620005b0565b92505081905550806000808473ffffffffffffffffffffffffffffffffffffffff1673ffffffffffffffffffffffffffffffffffffffff1681526020019081526020016000206000828254620003a49190620005b0565b925050819055508173ffffffffffffffffffffffffffffffffffffffff16600073ffffffffffffffffffffffffffffffffffffffff167fddf252ad1be2c89b69c2b068fc378daa952ba7f163c4a11628f55a4df523b3ef836040516200040b919062000582565b60405180910390a362000427600083836200043060201b60201c565b5050565b505050565b505050565b828054620004439062000829565b90600052602060002090601f016020900481019282620004675760008555620004b3565b82601f106200048257805160ff1916838001178555620004b3565b82800160010185558215620004b3579182015b82811115620004b257825182559160200191906001019062000495565b5b509050620004c29190620004c6565b5090565b5b80821115620004e1576000816000905550600101620004c7565b5090565b600081519050620004f681620008f3565b92915050565b6000602082840312156200050f57600080fd5b60006200051f84828501620004e5565b91505092915050565b600062000537601f836200059f565b91506200054482620008ca565b602082019050919050565b6200055a8162000812565b82525050565b600060208201905081810360008301526200057b8162000528565b9050919050565b60006020820190506200059960008301846200054f565b92915050565b600082825260208201905092915050565b6000620005bd8262000812565b9150620005ca8362000812565b9250827fffffffffffffffffffffffffffffffffffffffffffffffffffffffffffffffff038211156200060257620006016200085f565b5b828201905092915050565b6000808291508390505b60018511156200065f578086048111156200063757620006366200085f565b5b6001851615620006475780820291505b80810290506200065785620008bd565b945062000617565b94509492505050565b6000620006758262000812565b915062000682836200081c565b9250620006b17fffffffffffffffffffffffffffffffffffffffffffffffffffffffffffffffff8484620006b9565b905092915050565b600082620006cb57600190506200079e565b81620006db57600090506200079e565b8160018114620006f45760028114620006ff5762000735565b60019150506200079e565b60ff8411156200071457620007136200085f565b5b8360020a9150848211156200072e576200072d6200085f565b5b506200079e565b5060208310610133831016604e8410600b84101617156200076f5782820a9050838111156200076957620007686200085f565b5b6200079e565b6200077e84848460016200060d565b925090508184048111156200079857620007976200085f565b5b81810290505b9392505050565b6000620007b28262000812565b9150620007bf8362000812565b9250817fffffffffffffffffffffffffffffffffffffffffffffffffffffffffffffffff0483118215151615620007fb57620007fa6200085f565b5b828202905092915050565b60008115159050919050565b6000819050919050565b600060ff82169050919050565b600060028204905060018216806200084257607f821691505b602082108114156200085957620008586200088e565b5b50919050565b7f4e487b7100000000000000000000000000000000000000000000000000000000600052601160045260246000fd5b7f4e487b7100000000000000000000000000000000000000000000000000000000600052602260045260246000fd5b60008160011c9050919050565b7f45524332303a206d696e7420746f20746865207a65726f206164647265737300600082015250565b620008fe8162000806565b81146200090a57600080fd5b50565b613545806200091d6000396000f3fe6080604052600436106101ee5760003560e01c806370a082311161010d578063a457c2d7116100a0578063c19d93fb1161006f578063c19d93fb14610717578063c531441914610742578063d08b6faf1461077f578063dd62ed3e14610796578063ed366472146107d3576101ee565b8063a457c2d714610668578063a4821719146106a5578063a9059cbb146106af578063b1c9fe6e146106ec576101ee565b80639431d0ab116100dc5780639431d0ab146105ac57806395d89b41146105d55780639b19251a14610600578063a1bed0be1461063d576101ee565b806370a082311461050f57806371a73d601461054c5780638456cb59146105775780638d8f2adb146105a2576101ee565b806331908c801161018557806342e94c901161015457806342e94c901461043f5780634ac0bc321461047c5780635a7bd6f6146104a7578063664e9704146104e4576101ee565b806331908c801461038157806337c08923146103ac57806339509351146103d75780633f4ba83a14610414576101ee565b80631ca8b6cb116101c15780631ca8b6cb146102c35780631e3eca64146102ee57806323b872dd14610319578063313ce56714610356576101ee565b806306fdde03146101f3578063095ea7b31461021e5780631072cbea1461025b57806318160ddd14610298575b600080fd5b3480156101ff57600080fd5b506102086107fe565b60405161021591906129ed565b60405180910390f35b34801561022a57600080fd5b50610245600480360381019061024091906125fb565b610890565b604051610252919061299c565b60405180910390f35b34801561026757600080fd5b50610282600480360381019061027d91906125fb565b6108ae565b60405161028f919061299c565b60405180910390f35b3480156102a457600080fd5b506102ad6108e7565b6040516102ba9190612c9b565b60405180910390f35b3480156102cf57600080fd5b506102d86108f1565b6040516102e59190612c9b565b60405180910390f35b3480156102fa57600080fd5b506103036108f7565b6040516103109190612c9b565b60405180910390f35b34801561032557600080fd5b50610340600480360381019061033b91906125ac565b6108fd565b60405161034d919061299c565b60405180910390f35b34801561036257600080fd5b5061036b6109f5565b6040516103789190612cb6565b60405180910390f35b34801561038d57600080fd5b506103966109fe565b6040516103a39190612c9b565b60405180910390f35b3480156103b857600080fd5b506103c1610a04565b6040516103ce9190612c9b565b60405180910390f35b3480156103e357600080fd5b506103fe60048036038101906103f991906125fb565b610a0a565b60405161040b919061299c565b60405180910390f35b34801561042057600080fd5b50610429610ab6565b604051610436919061299c565b60405180910390f35b34801561044b57600080fd5b5061046660048036038101906104619190612547565b610c98565b6040516104739190612c9b565b60405180910390f35b34801561048857600080fd5b50610491610cb0565b60405161049e919061299c565b60405180910390f35b3480156104b357600080fd5b506104ce60048036038101906104c99190612547565b610cc3565b6040516104db9190612c9b565b60405180910390f35b3480156104f057600080fd5b506104f9610d0c565b6040516105069190612cb6565b60405180910390f35b34801561051b57600080fd5b5061053660048036038101906105319190612547565b610d11565b6040516105439190612c9b565b60405180910390f35b34801561055857600080fd5b50610561610d59565b60405161056e9190612c9b565b60405180910390f35b34801561058357600080fd5b5061058c610d63565b604051610599919061299c565b60405180910390f35b6105aa610f46565b005b3480156105b857600080fd5b506105d360048036038101906105ce9190612637565b6111ae565b005b3480156105e157600080fd5b506105ea611370565b6040516105f791906129ed565b60405180910390f35b34801561060c57600080fd5b5061062760048036038101906106229190612547565b611402565b604051610634919061299c565b60405180910390f35b34801561064957600080fd5b50610652611422565b60405161065f9190612c9b565b60405180910390f35b34801561067457600080fd5b5061068f600480360381019061068a91906125fb565b611430565b60405161069c919061299c565b60405180910390f35b6106ad61151b565b005b3480156106bb57600080fd5b506106d660048036038101906106d191906125fb565b6119ba565b6040516106e3919061299c565b60405180910390f35b3480156106f857600080fd5b506107016119d8565b60405161070e91906129b7565b60405180910390f35b34801561072357600080fd5b5061072c6119eb565b60405161073991906129d2565b60405180910390f35b34801561074e57600080fd5b5061076960048036038101906107649190612547565b6119fe565b6040516107769190612c9b565b60405180910390f35b34801561078b57600080fd5b50610794611a16565b005b3480156107a257600080fd5b506107bd60048036038101906107b89190612570565b611edd565b6040516107ca9190612c9b565b60405180910390f35b3480156107df57600080fd5b506107e8611f64565b6040516107f59190612c9b565b60405180910390f35b60606003805461080d90612f25565b80601f016020809104026020016040519081016040528092919081815260200182805461083990612f25565b80156108865780601f1061085b57610100808354040283529160200191610886565b820191906000526020600020905b81548152906001019060200180831161086957829003601f168201915b5050505050905090565b60006108a461089d611f6a565b8484611f72565b6001905092915050565b60006108dd600660009054906101000a900473ffffffffffffffffffffffffffffffffffffffff16848461213d565b6001905092915050565b6000600254905090565b60055481565b600e5481565b600061090a84848461213d565b6000600160008673ffffffffffffffffffffffffffffffffffffffff1673ffffffffffffffffffffffffffffffffffffffff1681526020019081526020016000206000610955611f6a565b73ffffffffffffffffffffffffffffffffffffffff1673ffffffffffffffffffffffffffffffffffffffff168152602001908152602001600020549050828110156109d5576040517f08c379a00000000000000000000000000000000000000000000000000000000081526004016109cc90612b2d565b60405180910390fd5b6109e9856109e1611f6a565b858403611f72565b60019150509392505050565b60006012905090565b600c5481565b600d5481565b6000610aac610a17611f6a565b848460016000610a25611f6a565b73ffffffffffffffffffffffffffffffffffffffff1673ffffffffffffffffffffffffffffffffffffffff16815260200190815260200160002060008873ffffffffffffffffffffffffffffffffffffffff1673ffffffffffffffffffffffffffffffffffffffff16815260200190815260200160002054610aa79190612d3e565b611f72565b6001905092915050565b6000600f60019054906101000a900473ffffffffffffffffffffffffffffffffffffffff1673ffffffffffffffffffffffffffffffffffffffff163373ffffffffffffffffffffffffffffffffffffffff1614610b48576040517f08c379a0000000000000000000000000000000000000000000000000000000008152600401610b3f90612bcd565b60405180910390fd5b600180811115610b81577f4e487b7100000000000000000000000000000000000000000000000000000000600052602160045260246000fd5b600a60019054906101000a900460ff166001811115610bc9577f4e487b7100000000000000000000000000000000000000000000000000000000600052602160045260246000fd5b14610c09576040517f08c379a0000000000000000000000000000000000000000000000000000000008152600401610c0090612abf565b60405180910390fd5b6000600a60016101000a81548160ff02191690836001811115610c55577f4e487b7100000000000000000000000000000000000000000000000000000000600052602160045260246000fd5b02179055507f5329bd0fcb36b026bf4a209f855795ad07cc603e6e193d562f6eab8ec496b5d442604051610c899190612aff565b60405180910390a16001905090565b60076020528060005260406000206000915090505481565b600f60009054906101000a900460ff1681565b6000600760008373ffffffffffffffffffffffffffffffffffffffff1673ffffffffffffffffffffffffffffffffffffffff168152602001908152602001600020549050919050565b600581565b60008060008373ffffffffffffffffffffffffffffffffffffffff1673ffffffffffffffffffffffffffffffffffffffff168152602001908152602001600020549050919050565b6000600e54905090565b6000600f60019054906101000a900473ffffffffffffffffffffffffffffffffffffffff1673ffffffffffffffffffffffffffffffffffffffff163373ffffffffffffffffffffffffffffffffffffffff1614610df5576040517f08c379a0000000000000000000000000000000000000000000000000000000008152600401610dec90612bcd565b60405180910390fd5b60006001811115610e2f577f4e487b7100000000000000000000000000000000000000000000000000000000600052602160045260246000fd5b600a60019054906101000a900460ff166001811115610e77577f4e487b7100000000000000000000000000000000000000000000000000000000600052602160045260246000fd5b14610eb7576040517f08c379a0000000000000000000000000000000000000000000000000000000008152600401610eae90612b6d565b60405180910390fd5b6001600a60016101000a81548160ff02191690836001811115610f03577f4e487b7100000000000000000000000000000000000000000000000000000000600052602160045260246000fd5b02179055507f5329bd0fcb36b026bf4a209f855795ad07cc603e6e193d562f6eab8ec496b5d442604051610f379190612c4d565b60405180910390a16001905090565b600280811115610f7f577f4e487b7100000000000000000000000000000000000000000000000000000000600052602160045260246000fd5b600a60009054906101000a900460ff166002811115610fc7577f4e487b7100000000000000000000000000000000000000000000000000000000600052602160045260246000fd5b14611007576040517f08c379a0000000000000000000000000000000000000000000000000000000008152600401610ffe90612a5f565b60405180910390fd5b6000600760003373ffffffffffffffffffffffffffffffffffffffff1673ffffffffffffffffffffffffffffffffffffffff1681526020019081526020016000205411611089576040517f08c379a000000000000000000000000000000000000000000000000000000000815260040161108090612c2d565b60405180910390fd5b60006110d3600760003373ffffffffffffffffffffffffffffffffffffffff1673ffffffffffffffffffffffffffffffffffffffff168152602001908152602001600020546123be565b90506000600560ff16826110e79190612dc5565b90506110f33382610890565b506110fe33826108ae565b506000611149600760003373ffffffffffffffffffffffffffffffffffffffff1673ffffffffffffffffffffffffffffffffffffffff16815260200190815260200160002054612405565b905080600e600082825461115d9190612d3e565b925050819055506000600760003373ffffffffffffffffffffffffffffffffffffffff1673ffffffffffffffffffffffffffffffffffffffff16815260200190815260200160002081905550505050565b600f60019054906101000a900473ffffffffffffffffffffffffffffffffffffffff1673ffffffffffffffffffffffffffffffffffffffff163373ffffffffffffffffffffffffffffffffffffffff161461123e576040517f08c379a000000000000000000000000000000000000000000000000000000000815260040161123590612bcd565b60405180910390fd5b60005b815181101561136c57600160086000848481518110611289577f4e487b7100000000000000000000000000000000000000000000000000000000600052603260045260246000fd5b602002602001015173ffffffffffffffffffffffffffffffffffffffff1673ffffffffffffffffffffffffffffffffffffffff16815260200190815260200160002060006101000a81548160ff0219169083151502179055507fa1f52fc9611211ef098d80010b285b7b6a26ee5554285184c4380f1c440dd21d82828151811061133c577f4e487b7100000000000000000000000000000000000000000000000000000000600052603260045260246000fd5b60200260200101516040516113519190612981565b60405180910390a1808061136490612f88565b915050611241565b5050565b60606004805461137f90612f25565b80601f01602080910402602001604051908101604052809291908181526020018280546113ab90612f25565b80156113f85780601f106113cd576101008083540402835291602001916113f8565b820191906000526020600020905b8154815290600101906020018083116113db57829003601f168201915b5050505050905090565b60086020528060005260406000206000915054906101000a900460ff1681565b69065a4da25d3016c0000081565b6000806001600061143f611f6a565b73ffffffffffffffffffffffffffffffffffffffff1673ffffffffffffffffffffffffffffffffffffffff16815260200190815260200160002060008573ffffffffffffffffffffffffffffffffffffffff1673ffffffffffffffffffffffffffffffffffffffff168152602001908152602001600020549050828110156114fc576040517f08c379a00000000000000000000000000000000000000000000000000000000081526004016114f390612c7b565b60405180910390fd5b611510611507611f6a565b85858403611f72565b600191505092915050565b60006001811115611555577f4e487b7100000000000000000000000000000000000000000000000000000000600052602160045260246000fd5b600a60019054906101000a900460ff16600181111561159d577f4e487b7100000000000000000000000000000000000000000000000000000000600052602160045260246000fd5b146115dd576040517f08c379a00000000000000000000000000000000000000000000000000000000081526004016115d490612b6d565b60405180910390fd5b60006002811115611617577f4e487b7100000000000000000000000000000000000000000000000000000000600052602160045260246000fd5b600a60009054906101000a900460ff16600281111561165f577f4e487b7100000000000000000000000000000000000000000000000000000000600052602160045260246000fd5b14156116b457600061167033612427565b9050806116b2576040517f08c379a00000000000000000000000000000000000000000000000000000000081526004016116a990612adf565b60405180910390fd5b505b6002808111156116ed577f4e487b7100000000000000000000000000000000000000000000000000000000600052602160045260246000fd5b600a60009054906101000a900460ff166002811115611735577f4e487b7100000000000000000000000000000000000000000000000000000000600052602160045260246000fd5b1461187257600c5434600760003373ffffffffffffffffffffffffffffffffffffffff1673ffffffffffffffffffffffffffffffffffffffff168152602001908152602001600020546117889190612d3e565b11156117c9576040517f08c379a00000000000000000000000000000000000000000000000000000000081526004016117c090612bad565b60405180910390fd5b600b5434600d546117da9190612d3e565b111561181b576040517f08c379a000000000000000000000000000000000000000000000000000000000815260040161181290612b4d565b60405180910390fd5b34600760003373ffffffffffffffffffffffffffffffffffffffff1673ffffffffffffffffffffffffffffffffffffffff168152602001908152602001600020600082825461186a9190612d3e565b925050819055505b6002808111156118ab577f4e487b7100000000000000000000000000000000000000000000000000000000600052602160045260246000fd5b600a60009054906101000a900460ff1660028111156118f3577f4e487b7100000000000000000000000000000000000000000000000000000000600052602160045260246000fd5b141561199f57600b5434111561193e576040517f08c379a000000000000000000000000000000000000000000000000000000000815260040161193590612b4d565b60405180910390fd5b6000611949346123be565b9050600061195634612405565b905080600e600082825461196a9190612d3e565b925050819055506000600560ff16836119839190612dc5565b905061198f3382610890565b5061199a33826108ae565b505050505b34600d60008282546119b19190612d3e565b92505081905550565b60006119ce6119c7611f6a565b848461213d565b6001905092915050565b600a60009054906101000a900460ff1681565b600a60019054906101000a900460ff1681565b60096020528060005260406000206000915090505481565b600f60019054906101000a900473ffffffffffffffffffffffffffffffffffffffff1673ffffffffffffffffffffffffffffffffffffffff163373ffffffffffffffffffffffffffffffffffffffff1614611aa6576040517f08c379a0000000000000000000000000000000000000000000000000000000008152600401611a9d90612bcd565b60405180910390fd5b60006001811115611ae0577f4e487b7100000000000000000000000000000000000000000000000000000000600052602160045260246000fd5b600a60019054906101000a900460ff166001811115611b28577f4e487b7100000000000000000000000000000000000000000000000000000000600052602160045260246000fd5b14611b68576040517f08c379a0000000000000000000000000000000000000000000000000000000008152600401611b5f90612b6d565b60405180910390fd5b600280811115611ba1577f4e487b7100000000000000000000000000000000000000000000000000000000600052602160045260246000fd5b600a60009054906101000a900460ff166002811115611be9577f4e487b7100000000000000000000000000000000000000000000000000000000600052602160045260246000fd5b1415611c2a576040517f08c379a0000000000000000000000000000000000000000000000000000000008152600401611c2190612c0d565b60405180910390fd5b606060006002811115611c66577f4e487b7100000000000000000000000000000000000000000000000000000000600052602160045260246000fd5b600a60009054906101000a900460ff166002811115611cae577f4e487b7100000000000000000000000000000000000000000000000000000000600052602160045260246000fd5b1415611d70576001600a60006101000a81548160ff02191690836002811115611d00577f4e487b7100000000000000000000000000000000000000000000000000000000600052602160045260246000fd5b02179055506040518060400160405280600d81526020017f47656e6572616c207068617365000000000000000000000000000000000000008152509050600d5469065a4da25d3016c00000611d559190612e1f565b600b81905550683635c9adc5dea00000600c81905550611ea1565b60016002811115611daa577f4e487b7100000000000000000000000000000000000000000000000000000000600052602160045260246000fd5b600a60009054906101000a900460ff166002811115611df2577f4e487b7100000000000000000000000000000000000000000000000000000000600052602160045260246000fd5b1415611ea0576002600a60006101000a81548160ff02191690836002811115611e44577f4e487b7100000000000000000000000000000000000000000000000000000000600052602160045260246000fd5b02179055506040518060400160405280600a81526020017f4f70656e207068617365000000000000000000000000000000000000000000008152509050600d5469065a4da25d3016c00000611e999190612e1f565b600b819055505b5b7ff44bc399284d1d26043e2d2fc9c340788feb5b1f156a70ad7780ccc20134aacc8142604051611ed2929190612a0f565b60405180910390a150565b6000600160008473ffffffffffffffffffffffffffffffffffffffff1673ffffffffffffffffffffffffffffffffffffffff16815260200190815260200160002060008373ffffffffffffffffffffffffffffffffffffffff1673ffffffffffffffffffffffffffffffffffffffff16815260200190815260200160002054905092915050565b600b5481565b600033905090565b600073ffffffffffffffffffffffffffffffffffffffff168373ffffffffffffffffffffffffffffffffffffffff161415611fe2576040517f08c379a0000000000000000000000000000000000000000000000000000000008152600401611fd990612bed565b60405180910390fd5b600073ffffffffffffffffffffffffffffffffffffffff168273ffffffffffffffffffffffffffffffffffffffff161415612052576040517f08c379a000000000000000000000000000000000000000000000000000000000815260040161204990612a7f565b60405180910390fd5b80600160008573ffffffffffffffffffffffffffffffffffffffff1673ffffffffffffffffffffffffffffffffffffffff16815260200190815260200160002060008473ffffffffffffffffffffffffffffffffffffffff1673ffffffffffffffffffffffffffffffffffffffff168152602001908152602001600020819055508173ffffffffffffffffffffffffffffffffffffffff168373ffffffffffffffffffffffffffffffffffffffff167f8c5be1e5ebec7d5bd14f71427d1e84f3dd0314c0f7b2291e5b200ac8c7c3b925836040516121309190612c9b565b60405180910390a3505050565b600073ffffffffffffffffffffffffffffffffffffffff168373ffffffffffffffffffffffffffffffffffffffff1614156121ad576040517f08c379a00000000000000000000000000000000000000000000000000000000081526004016121a490612b8d565b60405180910390fd5b600073ffffffffffffffffffffffffffffffffffffffff168273ffffffffffffffffffffffffffffffffffffffff16141561221d576040517f08c379a000000000000000000000000000000000000000000000000000000000815260040161221490612a3f565b60405180910390fd5b61222883838361247d565b60008060008573ffffffffffffffffffffffffffffffffffffffff1673ffffffffffffffffffffffffffffffffffffffff168152602001908152602001600020549050818110156122ae576040517f08c379a00000000000000000000000000000000000000000000000000000000081526004016122a590612a9f565b60405180910390fd5b8181036000808673ffffffffffffffffffffffffffffffffffffffff1673ffffffffffffffffffffffffffffffffffffffff16815260200190815260200160002081905550816000808573ffffffffffffffffffffffffffffffffffffffff1673ffffffffffffffffffffffffffffffffffffffff16815260200190815260200160002060008282546123419190612d3e565b925050819055508273ffffffffffffffffffffffffffffffffffffffff168473ffffffffffffffffffffffffffffffffffffffff167fddf252ad1be2c89b69c2b068fc378daa952ba7f163c4a11628f55a4df523b3ef846040516123a59190612c9b565b60405180910390a36123b8848484612482565b50505050565b60008082905060011515600f60009054906101000a900460ff16151514156123fc5760646062846123ef9190612dc5565b6123f99190612d94565b90505b80915050919050565b600060646002836124169190612dc5565b6124209190612d94565b9050919050565b6000600860008373ffffffffffffffffffffffffffffffffffffffff1673ffffffffffffffffffffffffffffffffffffffff16815260200190815260200160002060009054906101000a900460ff169050919050565b505050565b505050565b600061249a61249584612cf6565b612cd1565b905080838252602082019050828560208602820111156124b957600080fd5b60005b858110156124e957816124cf88826124f3565b8452602084019350602083019250506001810190506124bc565b5050509392505050565b600081359050612502816134e1565b92915050565b600082601f83011261251957600080fd5b8135612529848260208601612487565b91505092915050565b600081359050612541816134f8565b92915050565b60006020828403121561255957600080fd5b6000612567848285016124f3565b91505092915050565b6000806040838503121561258357600080fd5b6000612591858286016124f3565b92505060206125a2858286016124f3565b9150509250929050565b6000806000606084860312156125c157600080fd5b60006125cf868287016124f3565b93505060206125e0868287016124f3565b92505060406125f186828701612532565b9150509250925092565b6000806040838503121561260e57600080fd5b600061261c858286016124f3565b925050602061262d85828601612532565b9150509250929050565b60006020828403121561264957600080fd5b600082013567ffffffffffffffff81111561266357600080fd5b61266f84828501612508565b91505092915050565b61268181612e53565b82525050565b61269081612e65565b82525050565b61269f81612ece565b82525050565b6126ae81612ee0565b82525050565b60006126bf82612d22565b6126c98185612d2d565b93506126d9818560208601612ef2565b6126e2816130bc565b840191505092915050565b60006126fa602383612d2d565b9150612705826130cd565b604082019050919050565b600061271d600883612d2d565b91506127288261311c565b602082019050919050565b6000612740602283612d2d565b915061274b82613145565b604082019050919050565b6000612763602683612d2d565b915061276e82613194565b604082019050919050565b6000612786600a83612d2d565b9150612791826131e3565b602082019050919050565b60006127a9600f83612d2d565b91506127b48261320c565b602082019050919050565b60006127cc600683612d2d565b91506127d782613235565b602082019050919050565b60006127ef602883612d2d565b91506127fa8261325e565b604082019050919050565b6000612812601283612d2d565b915061281d826132ad565b602082019050919050565b6000612835600e83612d2d565b9150612840826132d6565b602082019050919050565b6000612858602583612d2d565b9150612863826132ff565b604082019050919050565b600061287b601783612d2d565b91506128868261334e565b602082019050919050565b600061289e600e83612d2d565b91506128a982613377565b602082019050919050565b60006128c1602483612d2d565b91506128cc826133a0565b604082019050919050565b60006128e4600c83612d2d565b91506128ef826133ef565b602082019050919050565b6000612907601083612d2d565b915061291282613418565b602082019050919050565b600061292a600683612d2d565b915061293582613441565b602082019050919050565b600061294d602583612d2d565b91506129588261346a565b604082019050919050565b61296c81612eb7565b82525050565b61297b81612ec1565b82525050565b60006020820190506129966000830184612678565b92915050565b60006020820190506129b16000830184612687565b92915050565b60006020820190506129cc6000830184612696565b92915050565b60006020820190506129e760008301846126a5565b92915050565b60006020820190508181036000830152612a0781846126b4565b905092915050565b60006040820190508181036000830152612a2981856126b4565b9050612a386020830184612963565b9392505050565b60006020820190508181036000830152612a58816126ed565b9050919050565b60006020820190508181036000830152612a7881612710565b9050919050565b60006020820190508181036000830152612a9881612733565b9050919050565b60006020820190508181036000830152612ab881612756565b9050919050565b60006020820190508181036000830152612ad881612779565b9050919050565b60006020820190508181036000830152612af88161279c565b9050919050565b60006040820190508181036000830152612b18816127bf565b9050612b276020830184612963565b92915050565b60006020820190508181036000830152612b46816127e2565b9050919050565b60006020820190508181036000830152612b6681612805565b9050919050565b60006020820190508181036000830152612b8681612828565b9050919050565b60006020820190508181036000830152612ba68161284b565b9050919050565b60006020820190508181036000830152612bc68161286e565b9050919050565b60006020820190508181036000830152612be681612891565b9050919050565b60006020820190508181036000830152612c06816128b4565b9050919050565b60006020820190508181036000830152612c26816128d7565b9050919050565b60006020820190508181036000830152612c46816128fa565b9050919050565b60006040820190508181036000830152612c668161291d565b9050612c756020830184612963565b92915050565b60006020820190508181036000830152612c9481612940565b9050919050565b6000602082019050612cb06000830184612963565b92915050565b6000602082019050612ccb6000830184612972565b92915050565b6000612cdb612cec565b9050612ce78282612f57565b919050565b6000604051905090565b600067ffffffffffffffff821115612d1157612d1061308d565b5b602082029050602081019050919050565b600081519050919050565b600082825260208201905092915050565b6000612d4982612eb7565b9150612d5483612eb7565b9250827fffffffffffffffffffffffffffffffffffffffffffffffffffffffffffffffff03821115612d8957612d88612fd1565b5b828201905092915050565b6000612d9f82612eb7565b9150612daa83612eb7565b925082612dba57612db9613000565b5b828204905092915050565b6000612dd082612eb7565b9150612ddb83612eb7565b9250817fffffffffffffffffffffffffffffffffffffffffffffffffffffffffffffffff0483118215151615612e1457612e13612fd1565b5b828202905092915050565b6000612e2a82612eb7565b9150612e3583612eb7565b925082821015612e4857612e47612fd1565b5b828203905092915050565b6000612e5e82612e97565b9050919050565b60008115159050919050565b6000819050612e7f826134b9565b919050565b6000819050612e92826134cd565b919050565b600073ffffffffffffffffffffffffffffffffffffffff82169050919050565b6000819050919050565b600060ff82169050919050565b6000612ed982612e71565b9050919050565b6000612eeb82612e84565b9050919050565b60005b83811015612f10578082015181840152602081019050612ef5565b83811115612f1f576000848401525b50505050565b60006002820490506001821680612f3d57607f821691505b60208210811415612f5157612f5061305e565b5b50919050565b612f60826130bc565b810181811067ffffffffffffffff82111715612f7f57612f7e61308d565b5b80604052505050565b6000612f9382612eb7565b91507fffffffffffffffffffffffffffffffffffffffffffffffffffffffffffffffff821415612fc657612fc5612fd1565b5b600182019050919050565b7f4e487b7100000000000000000000000000000000000000000000000000000000600052601160045260246000fd5b7f4e487b7100000000000000000000000000000000000000000000000000000000600052601260045260246000fd5b7f4e487b7100000000000000000000000000000000000000000000000000000000600052602160045260246000fd5b7f4e487b7100000000000000000000000000000000000000000000000000000000600052602260045260246000fd5b7f4e487b7100000000000000000000000000000000000000000000000000000000600052604160045260246000fd5b6000601f19601f8301169050919050565b7f45524332303a207472616e7366657220746f20746865207a65726f206164647260008201527f6573730000000000000000000000000000000000000000000000000000000000602082015250565b7f4e6f74206f70656e000000000000000000000000000000000000000000000000600082015250565b7f45524332303a20617070726f766520746f20746865207a65726f20616464726560008201527f7373000000000000000000000000000000000000000000000000000000000000602082015250565b7f45524332303a207472616e7366657220616d6f756e742065786365656473206260008201527f616c616e63650000000000000000000000000000000000000000000000000000602082015250565b7f4e6f742070617573656400000000000000000000000000000000000000000000600082015250565b7f4e6f742077686974656c69737465640000000000000000000000000000000000600082015250565b7f6163746976650000000000000000000000000000000000000000000000000000600082015250565b7f45524332303a207472616e7366657220616d6f756e742065786365656473206160008201527f6c6c6f77616e6365000000000000000000000000000000000000000000000000602082015250565b7f65786365656420746f74616c206c696d69740000000000000000000000000000600082015250565b7f416c726561647920706175736564000000000000000000000000000000000000600082015250565b7f45524332303a207472616e736665722066726f6d20746865207a65726f20616460008201527f6472657373000000000000000000000000000000000000000000000000000000602082015250565b7f65786365656420696e646976696475616c206c696d6974000000000000000000600082015250565b7f4f6e6c79206f776e65722063616e000000000000000000000000000000000000600082015250565b7f45524332303a20617070726f76652066726f6d20746865207a65726f2061646460008201527f7265737300000000000000000000000000000000000000000000000000000000602082015250565b7f416c7265616479206f70656e0000000000000000000000000000000000000000600082015250565b7f4e6f20636f6e747269627574696f6e7300000000000000000000000000000000600082015250565b7f7061757365640000000000000000000000000000000000000000000000000000600082015250565b7f45524332303a2064656372656173656420616c6c6f77616e63652062656c6f7760008201527f207a65726f000000000000000000000000000000000000000000000000000000602082015250565b600381106134ca576134c961302f565b5b50565b600281106134de576134dd61302f565b5b50565b6134ea81612e53565b81146134f557600080fd5b50565b61350181612eb7565b811461350c57600080fd5b5056fea2646970667358221220b03244e30d98d14ce724dc6b467c02b142d1b7b1a8f314502fa98f90dafe48ce64736f6c63430008040033",
  "linkReferences": {},
  "deployedLinkReferences": {}
}