{
  "_format": "hh-sol-artifact-1",
  "contractName": "AcroICO",
  "sourceName": "contracts/AcroICO.sol",
  "abi": [
    {
      "inputs": [
        {
          "internalType": "bool",
          "name": "_isTaxable",
          "type": "bool"
        }
      ],
      "stateMutability": "nonpayable",
      "type": "constructor"
    },
    {
      "anonymous": false,
      "inputs": [
        {
          "indexed": true,
          "internalType": "address",
          "name": "owner",
          "type": "address"
        },
        {
          "indexed": true,
          "internalType": "address",
          "name": "spender",
          "type": "address"
        },
        {
          "indexed": false,
          "internalType": "uint256",
          "name": "value",
          "type": "uint256"
        }
      ],
      "name": "Approval",
      "type": "event"
    },
    {
      "anonymous": false,
      "inputs": [
        {
          "indexed": false,
          "internalType": "string",
          "name": "state",
          "type": "string"
        },
        {
          "indexed": false,
          "internalType": "uint256",
          "name": "timestamp",
          "type": "uint256"
        }
      ],
      "name": "ChangeState",
      "type": "event"
    },
    {
      "anonymous": false,
      "inputs": [
        {
          "indexed": true,
          "internalType": "address",
          "name": "previousOwner",
          "type": "address"
        },
        {
          "indexed": true,
          "internalType": "address",
          "name": "newOwner",
          "type": "address"
        }
      ],
      "name": "OwnershipTransferred",
      "type": "event"
    },
    {
      "anonymous": false,
      "inputs": [
        {
          "indexed": false,
          "internalType": "string",
          "name": "currentPhase",
          "type": "string"
        },
        {
          "indexed": false,
          "internalType": "uint256",
          "name": "timestamp",
          "type": "uint256"
        }
      ],
      "name": "PhaseForwardEvent",
      "type": "event"
    },
    {
      "anonymous": false,
      "inputs": [
        {
          "indexed": true,
          "internalType": "address",
          "name": "from",
          "type": "address"
        },
        {
          "indexed": true,
          "internalType": "address",
          "name": "to",
          "type": "address"
        },
        {
          "indexed": false,
          "internalType": "uint256",
          "name": "value",
          "type": "uint256"
        }
      ],
      "name": "Transfer",
      "type": "event"
    },
    {
      "anonymous": false,
      "inputs": [
        {
          "indexed": false,
          "internalType": "address",
          "name": "addr",
          "type": "address"
        }
      ],
      "name": "WhitelistOperations",
      "type": "event"
    },
    {
      "inputs": [],
      "name": "GOAL",
      "outputs": [
        {
          "internalType": "uint256",
          "name": "",
          "type": "uint256"
        }
      ],
      "stateMutability": "view",
      "type": "function"
    },
    {
      "inputs": [],
      "name": "RATE",
      "outputs": [
        {
          "internalType": "uint8",
          "name": "",
          "type": "uint8"
        }
      ],
      "stateMutability": "view",
      "type": "function"
    },
    {
      "inputs": [
        {
          "internalType": "address[]",
          "name": "_whiteList",
          "type": "address[]"
        }
      ],
      "name": "WhitelistedCrowdsale",
      "outputs": [],
      "stateMutability": "nonpayable",
      "type": "function"
    },
    {
      "inputs": [
        {
          "internalType": "uint256",
          "name": "",
          "type": "uint256"
        }
      ],
      "name": "addressIndex",
      "outputs": [
        {
          "internalType": "address",
          "name": "",
          "type": "address"
        }
      ],
      "stateMutability": "view",
      "type": "function"
    },
    {
      "inputs": [],
      "name": "admin",
      "outputs": [
        {
          "internalType": "address",
          "name": "",
          "type": "address"
        }
      ],
      "stateMutability": "view",
      "type": "function"
    },
    {
      "inputs": [
        {
          "internalType": "address",
          "name": "owner",
          "type": "address"
        },
        {
          "internalType": "address",
          "name": "spender",
          "type": "address"
        }
      ],
      "name": "allowance",
      "outputs": [
        {
          "internalType": "uint256",
          "name": "",
          "type": "uint256"
        }
      ],
      "stateMutability": "view",
      "type": "function"
    },
    {
      "inputs": [
        {
          "internalType": "address",
          "name": "spender",
          "type": "address"
        },
        {
          "internalType": "uint256",
          "name": "amount",
          "type": "uint256"
        }
      ],
      "name": "approve",
      "outputs": [
        {
          "internalType": "bool",
          "name": "",
          "type": "bool"
        }
      ],
      "stateMutability": "nonpayable",
      "type": "function"
    },
    {
      "inputs": [
        {
          "internalType": "address",
          "name": "account",
          "type": "address"
        }
      ],
      "name": "balanceOf",
      "outputs": [
        {
          "internalType": "uint256",
          "name": "",
          "type": "uint256"
        }
      ],
      "stateMutability": "view",
      "type": "function"
    },
    {
      "inputs": [],
      "name": "buyToken",
      "outputs": [],
      "stateMutability": "payable",
      "type": "function"
    },
    {
      "inputs": [
        {
          "internalType": "address",
          "name": "",
          "type": "address"
        }
      ],
      "name": "contributions",
      "outputs": [
        {
          "internalType": "uint256",
          "name": "",
          "type": "uint256"
        }
      ],
      "stateMutability": "view",
      "type": "function"
    },
    {
      "inputs": [],
      "name": "decimals",
      "outputs": [
        {
          "internalType": "uint8",
          "name": "",
          "type": "uint8"
        }
      ],
      "stateMutability": "view",
      "type": "function"
    },
    {
      "inputs": [
        {
          "internalType": "address",
          "name": "spender",
          "type": "address"
        },
        {
          "internalType": "uint256",
          "name": "subtractedValue",
          "type": "uint256"
        }
      ],
      "name": "decreaseAllowance",
      "outputs": [
        {
          "internalType": "bool",
          "name": "",
          "type": "bool"
        }
      ],
      "stateMutability": "nonpayable",
      "type": "function"
    },
    {
      "inputs": [
        {
          "internalType": "address",
          "name": "spender",
          "type": "address"
        },
        {
          "internalType": "uint256",
          "name": "addedValue",
          "type": "uint256"
        }
      ],
      "name": "increaseAllowance",
      "outputs": [
        {
          "internalType": "bool",
          "name": "",
          "type": "bool"
        }
      ],
      "stateMutability": "nonpayable",
      "type": "function"
    },
    {
      "inputs": [],
      "name": "individualContributionLimit",
      "outputs": [
        {
          "internalType": "uint256",
          "name": "",
          "type": "uint256"
        }
      ],
      "stateMutability": "view",
      "type": "function"
    },
    {
      "inputs": [],
      "name": "isTaxable",
      "outputs": [
        {
          "internalType": "bool",
          "name": "",
          "type": "bool"
        }
      ],
      "stateMutability": "view",
      "type": "function"
    },
    {
      "inputs": [],
      "name": "maximumTotalPrivateContributionLimit",
      "outputs": [
        {
          "internalType": "uint256",
          "name": "",
          "type": "uint256"
        }
      ],
      "stateMutability": "view",
      "type": "function"
    },
    {
      "inputs": [],
      "name": "name",
      "outputs": [
        {
          "internalType": "string",
          "name": "",
          "type": "string"
        }
      ],
      "stateMutability": "view",
      "type": "function"
    },
    {
      "inputs": [],
      "name": "owner",
      "outputs": [
        {
          "internalType": "address",
          "name": "",
          "type": "address"
        }
      ],
      "stateMutability": "view",
      "type": "function"
    },
    {
      "inputs": [],
      "name": "pause",
      "outputs": [
        {
          "internalType": "bool",
          "name": "",
          "type": "bool"
        }
      ],
      "stateMutability": "nonpayable",
      "type": "function"
    },
    {
      "inputs": [],
      "name": "phase",
      "outputs": [
        {
          "internalType": "enum AcroICO.Phase",
          "name": "",
          "type": "uint8"
        }
      ],
      "stateMutability": "view",
      "type": "function"
    },
    {
      "inputs": [],
      "name": "phaseForward",
      "outputs": [],
      "stateMutability": "nonpayable",
      "type": "function"
    },
    {
      "inputs": [],
      "name": "renounceOwnership",
      "outputs": [],
      "stateMutability": "nonpayable",
      "type": "function"
    },
    {
      "inputs": [
        {
          "internalType": "address",
          "name": "_owner",
          "type": "address"
        }
      ],
      "name": "returnContributions",
      "outputs": [
        {
          "internalType": "uint256",
          "name": "",
          "type": "uint256"
        }
      ],
      "stateMutability": "view",
      "type": "function"
    },
    {
      "inputs": [],
      "name": "returnTotalTaxes",
      "outputs": [
        {
          "internalType": "uint256",
          "name": "",
          "type": "uint256"
        }
      ],
      "stateMutability": "view",
      "type": "function"
    },
    {
      "inputs": [],
      "name": "state",
      "outputs": [
        {
          "internalType": "enum AcroICO.State",
          "name": "",
          "type": "uint8"
        }
      ],
      "stateMutability": "view",
      "type": "function"
    },
    {
      "inputs": [],
      "name": "symbol",
      "outputs": [
        {
          "internalType": "string",
          "name": "",
          "type": "string"
        }
      ],
      "stateMutability": "view",
      "type": "function"
    },
    {
      "inputs": [
        {
          "internalType": "address",
          "name": "",
          "type": "address"
        }
      ],
      "name": "taxes",
      "outputs": [
        {
          "internalType": "uint256",
          "name": "",
          "type": "uint256"
        }
      ],
      "stateMutability": "view",
      "type": "function"
    },
    {
      "inputs": [],
      "name": "totalContributions",
      "outputs": [
        {
          "internalType": "uint256",
          "name": "",
          "type": "uint256"
        }
      ],
      "stateMutability": "view",
      "type": "function"
    },
    {
      "inputs": [],
      "name": "totalSupply",
      "outputs": [
        {
          "internalType": "uint256",
          "name": "",
          "type": "uint256"
        }
      ],
      "stateMutability": "view",
      "type": "function"
    },
    {
      "inputs": [],
      "name": "totalTaxes",
      "outputs": [
        {
          "internalType": "uint256",
          "name": "",
          "type": "uint256"
        }
      ],
      "stateMutability": "view",
      "type": "function"
    },
    {
      "inputs": [],
      "name": "totalTokenSupply",
      "outputs": [
        {
          "internalType": "uint256",
          "name": "",
          "type": "uint256"
        }
      ],
      "stateMutability": "view",
      "type": "function"
    },
    {
      "inputs": [
        {
          "internalType": "address",
          "name": "recipient",
          "type": "address"
        },
        {
          "internalType": "uint256",
          "name": "amount",
          "type": "uint256"
        }
      ],
      "name": "transfer",
      "outputs": [
        {
          "internalType": "bool",
          "name": "",
          "type": "bool"
        }
      ],
      "stateMutability": "nonpayable",
      "type": "function"
    },
    {
      "inputs": [
        {
          "internalType": "address",
          "name": "sender",
          "type": "address"
        },
        {
          "internalType": "address",
          "name": "recipient",
          "type": "address"
        },
        {
          "internalType": "uint256",
          "name": "amount",
          "type": "uint256"
        }
      ],
      "name": "transferFrom",
      "outputs": [
        {
          "internalType": "bool",
          "name": "",
          "type": "bool"
        }
      ],
      "stateMutability": "nonpayable",
      "type": "function"
    },
    {
      "inputs": [
        {
          "internalType": "address",
          "name": "newOwner",
          "type": "address"
        }
      ],
      "name": "transferOwnership",
      "outputs": [],
      "stateMutability": "nonpayable",
      "type": "function"
    },
    {
      "inputs": [
        {
          "internalType": "address",
          "name": "_recipient",
          "type": "address"
        },
        {
          "internalType": "uint256",
          "name": "_amount",
          "type": "uint256"
        }
      ],
      "name": "transferToken",
      "outputs": [
        {
          "internalType": "bool",
          "name": "",
          "type": "bool"
        }
      ],
      "stateMutability": "nonpayable",
      "type": "function"
    },
    {
      "inputs": [],
      "name": "unpause",
      "outputs": [
        {
          "internalType": "bool",
          "name": "",
          "type": "bool"
        }
      ],
      "stateMutability": "nonpayable",
      "type": "function"
    },
    {
      "inputs": [
        {
          "internalType": "address",
          "name": "",
          "type": "address"
        }
      ],
      "name": "whitelist",
      "outputs": [
        {
          "internalType": "bool",
          "name": "",
          "type": "bool"
        }
      ],
      "stateMutability": "view",
      "type": "function"
    },
    {
      "inputs": [],
      "name": "withdrawTokens",
      "outputs": [],
      "stateMutability": "payable",
      "type": "function"
    }
  ],
  "bytecode": "0x60806040526207a1206006556000600f5560006010556000601160006101000a81548160ff0219169083151502179055503480156200003d57600080fd5b50604051620044eb380380620044eb8339818101604052810190620000639190620005a8565b6040518060400160405280600981526020017f4163726f546f6b656e00000000000000000000000000000000000000000000008152506040518060400160405280600381526020017f4143520000000000000000000000000000000000000000000000000000000000815250620000ef620000e36200028860201b60201c565b6200029060201b60201c565b816004908051906020019062000107929190620004e1565b50806005908051906020019062000120929190620004e1565b50505033600760006101000a81548173ffffffffffffffffffffffffffffffffffffffff021916908373ffffffffffffffffffffffffffffffffffffffff160217905550620001a233620001796200035460201b60201c565b600a62000187919062000714565b60065462000196919062000851565b6200035d60201b60201c565b6000600c60006101000a81548160ff02191690836002811115620001ef577f4e487b7100000000000000000000000000000000000000000000000000000000600052602160045260246000fd5b02179055506000600c60016101000a81548160ff0219169083600181111562000241577f4e487b7100000000000000000000000000000000000000000000000000000000600052602160045260246000fd5b021790555080601160006101000a81548160ff02191690831515021790555069032d26d12e980b600000600d81905550685150ae84a8cdf00000600e8190555050620009b9565b600033905090565b60008060009054906101000a900473ffffffffffffffffffffffffffffffffffffffff169050816000806101000a81548173ffffffffffffffffffffffffffffffffffffffff021916908373ffffffffffffffffffffffffffffffffffffffff1602179055508173ffffffffffffffffffffffffffffffffffffffff168173ffffffffffffffffffffffffffffffffffffffff167f8be0079c531659141344cd1fd0a4f28419497f9722a3daafe3b4186f6b6457e060405160405180910390a35050565b60006012905090565b600073ffffffffffffffffffffffffffffffffffffffff168273ffffffffffffffffffffffffffffffffffffffff161415620003d0576040517f08c379a0000000000000000000000000000000000000000000000000000000008152600401620003c7906200060c565b60405180910390fd5b620003e460008383620004d760201b60201c565b8060036000828254620003f891906200065c565b9250508190555080600160008473ffffffffffffffffffffffffffffffffffffffff1673ffffffffffffffffffffffffffffffffffffffff16815260200190815260200160002060008282546200045091906200065c565b925050819055508173ffffffffffffffffffffffffffffffffffffffff16600073ffffffffffffffffffffffffffffffffffffffff167fddf252ad1be2c89b69c2b068fc378daa952ba7f163c4a11628f55a4df523b3ef83604051620004b791906200062e565b60405180910390a3620004d360008383620004dc60201b60201c565b5050565b505050565b505050565b828054620004ef90620008d5565b90600052602060002090601f0160209004810192826200051357600085556200055f565b82601f106200052e57805160ff19168380011785556200055f565b828001600101855582156200055f579182015b828111156200055e57825182559160200191906001019062000541565b5b5090506200056e919062000572565b5090565b5b808211156200058d57600081600090555060010162000573565b5090565b600081519050620005a2816200099f565b92915050565b600060208284031215620005bb57600080fd5b6000620005cb8482850162000591565b91505092915050565b6000620005e3601f836200064b565b9150620005f08262000976565b602082019050919050565b6200060681620008be565b82525050565b600060208201905081810360008301526200062781620005d4565b9050919050565b6000602082019050620006456000830184620005fb565b92915050565b600082825260208201905092915050565b60006200066982620008be565b91506200067683620008be565b9250827fffffffffffffffffffffffffffffffffffffffffffffffffffffffffffffffff03821115620006ae57620006ad6200090b565b5b828201905092915050565b6000808291508390505b60018511156200070b57808604811115620006e357620006e26200090b565b5b6001851615620006f35780820291505b8081029050620007038562000969565b9450620006c3565b94509492505050565b60006200072182620008be565b91506200072e83620008c8565b92506200075d7fffffffffffffffffffffffffffffffffffffffffffffffffffffffffffffffff848462000765565b905092915050565b6000826200077757600190506200084a565b816200078757600090506200084a565b8160018114620007a05760028114620007ab57620007e1565b60019150506200084a565b60ff841115620007c057620007bf6200090b565b5b8360020a915084821115620007da57620007d96200090b565b5b506200084a565b5060208310610133831016604e8410600b84101617156200081b5782820a9050838111156200081557620008146200090b565b5b6200084a565b6200082a8484846001620006b9565b925090508184048111156200084457620008436200090b565b5b81810290505b9392505050565b60006200085e82620008be565b91506200086b83620008be565b9250817fffffffffffffffffffffffffffffffffffffffffffffffffffffffffffffffff0483118215151615620008a757620008a66200090b565b5b828202905092915050565b60008115159050919050565b6000819050919050565b600060ff82169050919050565b60006002820490506001821680620008ee57607f821691505b602082108114156200090557620009046200093a565b5b50919050565b7f4e487b7100000000000000000000000000000000000000000000000000000000600052601160045260246000fd5b7f4e487b7100000000000000000000000000000000000000000000000000000000600052602260045260246000fd5b60008160011c9050919050565b7f45524332303a206d696e7420746f20746865207a65726f206164647265737300600082015250565b620009aa81620008b2565b8114620009b657600080fd5b50565b613b2280620009c96000396000f3fe6080604052600436106102255760003560e01c806371a73d6011610123578063a9059cbb116100ab578063d08b6faf1161006f578063d08b6faf14610835578063dd62ed3e1461084c578063ed36647214610889578063f2fde38b146108b4578063f851a440146108dd57610225565b8063a9059cbb14610728578063b1c9fe6e14610765578063c19d93fb14610790578063c5314419146107bb578063cc1a2865146107f857610225565b806395d89b41116100f257806395d89b411461064e5780639b19251a14610679578063a1bed0be146106b6578063a457c2d7146106e1578063a48217191461071e57610225565b806371a73d60146105c35780638456cb59146105ee5780638d8f2adb146106195780638da5cb5b1461062357610225565b806337c08923116101b15780635a7bd6f6116101755780635a7bd6f6146104de578063664e97041461051b57806367fb42ff1461054657806370a082311461056f578063715018a6146105ac57610225565b806337c08923146103e3578063395093511461040e5780633f4ba83a1461044b57806342e94c90146104765780634ac0bc32146104b357610225565b80631ca8b6cb116101f85780631ca8b6cb146102fa5780631e3eca641461032557806323b872dd14610350578063313ce5671461038d57806331908c80146103b857610225565b806306fdde031461022a578063095ea7b3146102555780631072cbea1461029257806318160ddd146102cf575b600080fd5b34801561023657600080fd5b5061023f610908565b60405161024c9190612f35565b60405180910390f35b34801561026157600080fd5b5061027c60048036038101906102779190612af7565b61099a565b6040516102899190612ee4565b60405180910390f35b34801561029e57600080fd5b506102b960048036038101906102b49190612af7565b6109b8565b6040516102c69190612ee4565b60405180910390f35b3480156102db57600080fd5b506102e46109f1565b6040516102f19190613203565b60405180910390f35b34801561030657600080fd5b5061030f6109fb565b60405161031c9190613203565b60405180910390f35b34801561033157600080fd5b5061033a610a01565b6040516103479190613203565b60405180910390f35b34801561035c57600080fd5b5061037760048036038101906103729190612aa8565b610a07565b6040516103849190612ee4565b60405180910390f35b34801561039957600080fd5b506103a2610aff565b6040516103af919061321e565b60405180910390f35b3480156103c457600080fd5b506103cd610b08565b6040516103da9190613203565b60405180910390f35b3480156103ef57600080fd5b506103f8610b0e565b6040516104059190613203565b60405180910390f35b34801561041a57600080fd5b5061043560048036038101906104309190612af7565b610b14565b6040516104429190612ee4565b60405180910390f35b34801561045757600080fd5b50610460610bc0565b60405161046d9190612ee4565b60405180910390f35b34801561048257600080fd5b5061049d60048036038101906104989190612a43565b610d8e565b6040516104aa9190613203565b60405180910390f35b3480156104bf57600080fd5b506104c8610da6565b6040516104d59190612ee4565b60405180910390f35b3480156104ea57600080fd5b5061050560048036038101906105009190612a43565b610db9565b6040516105129190613203565b60405180910390f35b34801561052757600080fd5b50610530610e02565b60405161053d919061321e565b60405180910390f35b34801561055257600080fd5b5061056d60048036038101906105689190612b33565b610e07565b005b34801561057b57600080fd5b5061059660048036038101906105919190612a43565b611061565b6040516105a39190613203565b60405180910390f35b3480156105b857600080fd5b506105c16110aa565b005b3480156105cf57600080fd5b506105d8611132565b6040516105e59190613203565b60405180910390f35b3480156105fa57600080fd5b5061060361113c565b6040516106109190612ee4565b60405180910390f35b61062161130b565b005b34801561062f57600080fd5b50610638611586565b6040516106459190612ec9565b60405180910390f35b34801561065a57600080fd5b506106636115af565b6040516106709190612f35565b60405180910390f35b34801561068557600080fd5b506106a0600480360381019061069b9190612a43565b611641565b6040516106ad9190612ee4565b60405180910390f35b3480156106c257600080fd5b506106cb611661565b6040516106d89190613203565b60405180910390f35b3480156106ed57600080fd5b5061070860048036038101906107039190612af7565b61166f565b6040516107159190612ee4565b60405180910390f35b61072661175a565b005b34801561073457600080fd5b5061074f600480360381019061074a9190612af7565b611ca6565b60405161075c9190612ee4565b60405180910390f35b34801561077157600080fd5b5061077a611cc4565b6040516107879190612eff565b60405180910390f35b34801561079c57600080fd5b506107a5611cd7565b6040516107b29190612f1a565b60405180910390f35b3480156107c757600080fd5b506107e260048036038101906107dd9190612a43565b611cea565b6040516107ef9190613203565b60405180910390f35b34801561080457600080fd5b5061081f600480360381019061081a9190612b74565b611d02565b60405161082c9190612ec9565b60405180910390f35b34801561084157600080fd5b5061084a611d41565b005b34801561085857600080fd5b50610873600480360381019061086e9190612a6c565b6121f4565b6040516108809190613203565b60405180910390f35b34801561089557600080fd5b5061089e61227b565b6040516108ab9190613203565b60405180910390f35b3480156108c057600080fd5b506108db60048036038101906108d69190612a43565b612281565b005b3480156108e957600080fd5b506108f2612379565b6040516108ff9190612ec9565b60405180910390f35b6060600480546109179061348d565b80601f01602080910402602001604051908101604052809291908181526020018280546109439061348d565b80156109905780601f1061096557610100808354040283529160200191610990565b820191906000526020600020905b81548152906001019060200180831161097357829003601f168201915b5050505050905090565b60006109ae6109a761239f565b84846123a7565b6001905092915050565b60006109e7600760009054906101000a900473ffffffffffffffffffffffffffffffffffffffff168484612572565b6001905092915050565b6000600354905090565b60065481565b60105481565b6000610a14848484612572565b6000600260008673ffffffffffffffffffffffffffffffffffffffff1673ffffffffffffffffffffffffffffffffffffffff1681526020019081526020016000206000610a5f61239f565b73ffffffffffffffffffffffffffffffffffffffff1673ffffffffffffffffffffffffffffffffffffffff16815260200190815260200160002054905082811015610adf576040517f08c379a0000000000000000000000000000000000000000000000000000000008152600401610ad690613095565b60405180910390fd5b610af385610aeb61239f565b8584036123a7565b60019150509392505050565b60006012905090565b600e5481565b600f5481565b6000610bb6610b2161239f565b848460026000610b2f61239f565b73ffffffffffffffffffffffffffffffffffffffff1673ffffffffffffffffffffffffffffffffffffffff16815260200190815260200160002060008873ffffffffffffffffffffffffffffffffffffffff1673ffffffffffffffffffffffffffffffffffffffff16815260200190815260200160002054610bb191906132a6565b6123a7565b6001905092915050565b6000610bca61239f565b73ffffffffffffffffffffffffffffffffffffffff16610be8611586565b73ffffffffffffffffffffffffffffffffffffffff1614610c3e576040517f08c379a0000000000000000000000000000000000000000000000000000000008152600401610c35906130b5565b60405180910390fd5b600180811115610c77577f4e487b7100000000000000000000000000000000000000000000000000000000600052602160045260246000fd5b600c60019054906101000a900460ff166001811115610cbf577f4e487b7100000000000000000000000000000000000000000000000000000000600052602160045260246000fd5b14610cff576040517f08c379a0000000000000000000000000000000000000000000000000000000008152600401610cf690613027565b60405180910390fd5b6000600c60016101000a81548160ff02191690836001811115610d4b577f4e487b7100000000000000000000000000000000000000000000000000000000600052602160045260246000fd5b02179055507f5329bd0fcb36b026bf4a209f855795ad07cc603e6e193d562f6eab8ec496b5d442604051610d7f9190613067565b60405180910390a16001905090565b60086020528060005260406000206000915090505481565b601160009054906101000a900460ff1681565b6000600860008373ffffffffffffffffffffffffffffffffffffffff1673ffffffffffffffffffffffffffffffffffffffff168152602001908152602001600020549050919050565b600581565b60005b815181101561105d57600160096000848481518110610e52577f4e487b7100000000000000000000000000000000000000000000000000000000600052603260045260246000fd5b602002602001015173ffffffffffffffffffffffffffffffffffffffff1673ffffffffffffffffffffffffffffffffffffffff16815260200190815260200160002060006101000a81548160ff021916908315150217905550600b828281518110610ee6577f4e487b7100000000000000000000000000000000000000000000000000000000600052603260045260246000fd5b60200260200101519080600181540180825580915050600190039060005260206000200160009091909190916101000a81548173ffffffffffffffffffffffffffffffffffffffff021916908373ffffffffffffffffffffffffffffffffffffffff1602179055507fa1f52fc9611211ef098d80010b285b7b6a26ee5554285184c4380f1c440dd21d828281518110610fa8577f4e487b7100000000000000000000000000000000000000000000000000000000600052603260045260246000fd5b6020026020010151604051610fbd9190612ec9565b60405180910390a1600060086000848481518110611004577f4e487b7100000000000000000000000000000000000000000000000000000000600052603260045260246000fd5b602002602001015173ffffffffffffffffffffffffffffffffffffffff1673ffffffffffffffffffffffffffffffffffffffff168152602001908152602001600020819055508080611055906134f0565b915050610e0a565b5050565b6000600160008373ffffffffffffffffffffffffffffffffffffffff1673ffffffffffffffffffffffffffffffffffffffff168152602001908152602001600020549050919050565b6110b261239f565b73ffffffffffffffffffffffffffffffffffffffff166110d0611586565b73ffffffffffffffffffffffffffffffffffffffff1614611126576040517f08c379a000000000000000000000000000000000000000000000000000000000815260040161111d906130b5565b60405180910390fd5b61113060006127f6565b565b6000601054905090565b600061114661239f565b73ffffffffffffffffffffffffffffffffffffffff16611164611586565b73ffffffffffffffffffffffffffffffffffffffff16146111ba576040517f08c379a00000000000000000000000000000000000000000000000000000000081526004016111b1906130b5565b60405180910390fd5b600060018111156111f4577f4e487b7100000000000000000000000000000000000000000000000000000000600052602160045260246000fd5b600c60019054906101000a900460ff16600181111561123c577f4e487b7100000000000000000000000000000000000000000000000000000000600052602160045260246000fd5b1461127c576040517f08c379a0000000000000000000000000000000000000000000000000000000008152600401611273906130f5565b60405180910390fd5b6001600c60016101000a81548160ff021916908360018111156112c8577f4e487b7100000000000000000000000000000000000000000000000000000000600052602160045260246000fd5b02179055507f5329bd0fcb36b026bf4a209f855795ad07cc603e6e193d562f6eab8ec496b5d4426040516112fc91906131b5565b60405180910390a16001905090565b600280811115611344577f4e487b7100000000000000000000000000000000000000000000000000000000600052602160045260246000fd5b600c60009054906101000a900460ff16600281111561138c577f4e487b7100000000000000000000000000000000000000000000000000000000600052602160045260246000fd5b146113cc576040517f08c379a00000000000000000000000000000000000000000000000000000000081526004016113c390612fa7565b60405180910390fd5b6000600860003373ffffffffffffffffffffffffffffffffffffffff1673ffffffffffffffffffffffffffffffffffffffff168152602001908152602001600020541161144e576040517f08c379a000000000000000000000000000000000000000000000000000000000815260040161144590613175565b60405180910390fd5b6000611498600860003373ffffffffffffffffffffffffffffffffffffffff1673ffffffffffffffffffffffffffffffffffffffff168152602001908152602001600020546128ba565b90506000600560ff16670de0b6b3a7640000836114b591906132fc565b6114bf919061332d565b90506114cb338261099a565b506114d633826109b8565b506000611521600860003373ffffffffffffffffffffffffffffffffffffffff1673ffffffffffffffffffffffffffffffffffffffff16815260200190815260200160002054612901565b9050806010600082825461153591906132a6565b925050819055506000600860003373ffffffffffffffffffffffffffffffffffffffff1673ffffffffffffffffffffffffffffffffffffffff16815260200190815260200160002081905550505050565b60008060009054906101000a900473ffffffffffffffffffffffffffffffffffffffff16905090565b6060600580546115be9061348d565b80601f01602080910402602001604051908101604052809291908181526020018280546115ea9061348d565b80156116375780601f1061160c57610100808354040283529160200191611637565b820191906000526020600020905b81548152906001019060200180831161161a57829003601f168201915b5050505050905090565b60096020528060005260406000206000915054906101000a900460ff1681565b69065a4da25d3016c0000081565b6000806002600061167e61239f565b73ffffffffffffffffffffffffffffffffffffffff1673ffffffffffffffffffffffffffffffffffffffff16815260200190815260200160002060008573ffffffffffffffffffffffffffffffffffffffff1673ffffffffffffffffffffffffffffffffffffffff1681526020019081526020016000205490508281101561173b576040517f08c379a0000000000000000000000000000000000000000000000000000000008152600401611732906131e3565b60405180910390fd5b61174f61174661239f565b858584036123a7565b600191505092915050565b60006001811115611794577f4e487b7100000000000000000000000000000000000000000000000000000000600052602160045260246000fd5b600c60019054906101000a900460ff1660018111156117dc577f4e487b7100000000000000000000000000000000000000000000000000000000600052602160045260246000fd5b1461181c576040517f08c379a0000000000000000000000000000000000000000000000000000000008152600401611813906130f5565b60405180910390fd5b60006002811115611856577f4e487b7100000000000000000000000000000000000000000000000000000000600052602160045260246000fd5b600c60009054906101000a900460ff16600281111561189e577f4e487b7100000000000000000000000000000000000000000000000000000000600052602160045260246000fd5b14156118f35760006118af33612923565b9050806118f1576040517f08c379a00000000000000000000000000000000000000000000000000000000081526004016118e890613047565b60405180910390fd5b505b60028081111561192c577f4e487b7100000000000000000000000000000000000000000000000000000000600052602160045260246000fd5b600c60009054906101000a900460ff166002811115611974577f4e487b7100000000000000000000000000000000000000000000000000000000600052602160045260246000fd5b14611b4b57600e5434600860003373ffffffffffffffffffffffffffffffffffffffff1673ffffffffffffffffffffffffffffffffffffffff168152602001908152602001600020546119c791906132a6565b1115611a08576040517f08c379a00000000000000000000000000000000000000000000000000000000081526004016119ff90613135565b60405180910390fd5b600d5434600f54611a1991906132a6565b1115611a5a576040517f08c379a0000000000000000000000000000000000000000000000000000000008152600401611a51906130d5565b60405180910390fd5b6000600860003373ffffffffffffffffffffffffffffffffffffffff1673ffffffffffffffffffffffffffffffffffffffff168152602001908152602001600020541415611b0657600b339080600181540180825580915050600190039060005260206000200160009091909190916101000a81548173ffffffffffffffffffffffffffffffffffffffff021916908373ffffffffffffffffffffffffffffffffffffffff1602179055505b34600860003373ffffffffffffffffffffffffffffffffffffffff1673ffffffffffffffffffffffffffffffffffffffff168152602001908152602001600020819055505b600280811115611b84577f4e487b7100000000000000000000000000000000000000000000000000000000600052602160045260246000fd5b600c60009054906101000a900460ff166002811115611bcc577f4e487b7100000000000000000000000000000000000000000000000000000000600052602160045260246000fd5b1415611c8b57600d54341115611c17576040517f08c379a0000000000000000000000000000000000000000000000000000000008152600401611c0e906130d5565b60405180910390fd5b6000611c22346128ba565b90506000611c2f34612901565b90508060106000828254611c4391906132a6565b925050819055506000600560ff16670de0b6b3a764000084611c6591906132fc565b611c6f919061332d565b9050611c7b338261099a565b50611c8633826109b8565b505050505b34600f6000828254611c9d91906132a6565b92505081905550565b6000611cba611cb361239f565b8484612572565b6001905092915050565b600c60009054906101000a900460ff1681565b600c60019054906101000a900460ff1681565b600a6020528060005260406000206000915090505481565b600b8181548110611d1257600080fd5b906000526020600020016000915054906101000a900473ffffffffffffffffffffffffffffffffffffffff1681565b611d4961239f565b73ffffffffffffffffffffffffffffffffffffffff16611d67611586565b73ffffffffffffffffffffffffffffffffffffffff1614611dbd576040517f08c379a0000000000000000000000000000000000000000000000000000000008152600401611db4906130b5565b60405180910390fd5b60006001811115611df7577f4e487b7100000000000000000000000000000000000000000000000000000000600052602160045260246000fd5b600c60019054906101000a900460ff166001811115611e3f577f4e487b7100000000000000000000000000000000000000000000000000000000600052602160045260246000fd5b14611e7f576040517f08c379a0000000000000000000000000000000000000000000000000000000008152600401611e76906130f5565b60405180910390fd5b600280811115611eb8577f4e487b7100000000000000000000000000000000000000000000000000000000600052602160045260246000fd5b600c60009054906101000a900460ff166002811115611f00577f4e487b7100000000000000000000000000000000000000000000000000000000600052602160045260246000fd5b1415611f41576040517f08c379a0000000000000000000000000000000000000000000000000000000008152600401611f3890613195565b60405180910390fd5b606060006002811115611f7d577f4e487b7100000000000000000000000000000000000000000000000000000000600052602160045260246000fd5b600c60009054906101000a900460ff166002811115611fc5577f4e487b7100000000000000000000000000000000000000000000000000000000600052602160045260246000fd5b1415612087576001600c60006101000a81548160ff02191690836002811115612017577f4e487b7100000000000000000000000000000000000000000000000000000000600052602160045260246000fd5b02179055506040518060400160405280600d81526020017f47656e6572616c207068617365000000000000000000000000000000000000008152509050600f5469065a4da25d3016c0000061206c9190613387565b600d81905550683635c9adc5dea00000600e819055506121b8565b600160028111156120c1577f4e487b7100000000000000000000000000000000000000000000000000000000600052602160045260246000fd5b600c60009054906101000a900460ff166002811115612109577f4e487b7100000000000000000000000000000000000000000000000000000000600052602160045260246000fd5b14156121b7576002600c60006101000a81548160ff0219169083600281111561215b577f4e487b7100000000000000000000000000000000000000000000000000000000600052602160045260246000fd5b02179055506040518060400160405280600a81526020017f4f70656e207068617365000000000000000000000000000000000000000000008152509050600f5469065a4da25d3016c000006121b09190613387565b600d819055505b5b7ff44bc399284d1d26043e2d2fc9c340788feb5b1f156a70ad7780ccc20134aacc81426040516121e9929190612f57565b60405180910390a150565b6000600260008473ffffffffffffffffffffffffffffffffffffffff1673ffffffffffffffffffffffffffffffffffffffff16815260200190815260200160002060008373ffffffffffffffffffffffffffffffffffffffff1673ffffffffffffffffffffffffffffffffffffffff16815260200190815260200160002054905092915050565b600d5481565b61228961239f565b73ffffffffffffffffffffffffffffffffffffffff166122a7611586565b73ffffffffffffffffffffffffffffffffffffffff16146122fd576040517f08c379a00000000000000000000000000000000000000000000000000000000081526004016122f4906130b5565b60405180910390fd5b600073ffffffffffffffffffffffffffffffffffffffff168173ffffffffffffffffffffffffffffffffffffffff16141561236d576040517f08c379a000000000000000000000000000000000000000000000000000000000815260040161236490612fc7565b60405180910390fd5b612376816127f6565b50565b600760009054906101000a900473ffffffffffffffffffffffffffffffffffffffff1681565b600033905090565b600073ffffffffffffffffffffffffffffffffffffffff168373ffffffffffffffffffffffffffffffffffffffff161415612417576040517f08c379a000000000000000000000000000000000000000000000000000000000815260040161240e90613155565b60405180910390fd5b600073ffffffffffffffffffffffffffffffffffffffff168273ffffffffffffffffffffffffffffffffffffffff161415612487576040517f08c379a000000000000000000000000000000000000000000000000000000000815260040161247e90612fe7565b60405180910390fd5b80600260008573ffffffffffffffffffffffffffffffffffffffff1673ffffffffffffffffffffffffffffffffffffffff16815260200190815260200160002060008473ffffffffffffffffffffffffffffffffffffffff1673ffffffffffffffffffffffffffffffffffffffff168152602001908152602001600020819055508173ffffffffffffffffffffffffffffffffffffffff168373ffffffffffffffffffffffffffffffffffffffff167f8c5be1e5ebec7d5bd14f71427d1e84f3dd0314c0f7b2291e5b200ac8c7c3b925836040516125659190613203565b60405180910390a3505050565b600073ffffffffffffffffffffffffffffffffffffffff168373ffffffffffffffffffffffffffffffffffffffff1614156125e2576040517f08c379a00000000000000000000000000000000000000000000000000000000081526004016125d990613115565b60405180910390fd5b600073ffffffffffffffffffffffffffffffffffffffff168273ffffffffffffffffffffffffffffffffffffffff161415612652576040517f08c379a000000000000000000000000000000000000000000000000000000000815260040161264990612f87565b60405180910390fd5b61265d838383612979565b6000600160008573ffffffffffffffffffffffffffffffffffffffff1673ffffffffffffffffffffffffffffffffffffffff168152602001908152602001600020549050818110156126e4576040517f08c379a00000000000000000000000000000000000000000000000000000000081526004016126db90613007565b60405180910390fd5b818103600160008673ffffffffffffffffffffffffffffffffffffffff1673ffffffffffffffffffffffffffffffffffffffff1681526020019081526020016000208190555081600160008573ffffffffffffffffffffffffffffffffffffffff1673ffffffffffffffffffffffffffffffffffffffff168152602001908152602001600020600082825461277991906132a6565b925050819055508273ffffffffffffffffffffffffffffffffffffffff168473ffffffffffffffffffffffffffffffffffffffff167fddf252ad1be2c89b69c2b068fc378daa952ba7f163c4a11628f55a4df523b3ef846040516127dd9190613203565b60405180910390a36127f084848461297e565b50505050565b60008060009054906101000a900473ffffffffffffffffffffffffffffffffffffffff169050816000806101000a81548173ffffffffffffffffffffffffffffffffffffffff021916908373ffffffffffffffffffffffffffffffffffffffff1602179055508173ffffffffffffffffffffffffffffffffffffffff168173ffffffffffffffffffffffffffffffffffffffff167f8be0079c531659141344cd1fd0a4f28419497f9722a3daafe3b4186f6b6457e060405160405180910390a35050565b60008082905060011515601160009054906101000a900460ff16151514156128f85760646062846128eb919061332d565b6128f591906132fc565b90505b80915050919050565b60006064600283612912919061332d565b61291c91906132fc565b9050919050565b6000600960008373ffffffffffffffffffffffffffffffffffffffff1673ffffffffffffffffffffffffffffffffffffffff16815260200190815260200160002060009054906101000a900460ff169050919050565b505050565b505050565b60006129966129918461325e565b613239565b905080838252602082019050828560208602820111156129b557600080fd5b60005b858110156129e557816129cb88826129ef565b8452602084019350602083019250506001810190506129b8565b5050509392505050565b6000813590506129fe81613abe565b92915050565b600082601f830112612a1557600080fd5b8135612a25848260208601612983565b91505092915050565b600081359050612a3d81613ad5565b92915050565b600060208284031215612a5557600080fd5b6000612a63848285016129ef565b91505092915050565b60008060408385031215612a7f57600080fd5b6000612a8d858286016129ef565b9250506020612a9e858286016129ef565b9150509250929050565b600080600060608486031215612abd57600080fd5b6000612acb868287016129ef565b9350506020612adc868287016129ef565b9250506040612aed86828701612a2e565b9150509250925092565b60008060408385031215612b0a57600080fd5b6000612b18858286016129ef565b9250506020612b2985828601612a2e565b9150509250929050565b600060208284031215612b4557600080fd5b600082013567ffffffffffffffff811115612b5f57600080fd5b612b6b84828501612a04565b91505092915050565b600060208284031215612b8657600080fd5b6000612b9484828501612a2e565b91505092915050565b612ba6816133bb565b82525050565b612bb5816133cd565b82525050565b612bc481613436565b82525050565b612bd381613448565b82525050565b6000612be48261328a565b612bee8185613295565b9350612bfe81856020860161345a565b612c0781613624565b840191505092915050565b6000612c1f602383613295565b9150612c2a82613635565b604082019050919050565b6000612c42600883613295565b9150612c4d82613684565b602082019050919050565b6000612c65602683613295565b9150612c70826136ad565b604082019050919050565b6000612c88602283613295565b9150612c93826136fc565b604082019050919050565b6000612cab602683613295565b9150612cb68261374b565b604082019050919050565b6000612cce600a83613295565b9150612cd98261379a565b602082019050919050565b6000612cf1600f83613295565b9150612cfc826137c3565b602082019050919050565b6000612d14600683613295565b9150612d1f826137ec565b602082019050919050565b6000612d37602883613295565b9150612d4282613815565b604082019050919050565b6000612d5a602083613295565b9150612d6582613864565b602082019050919050565b6000612d7d601283613295565b9150612d888261388d565b602082019050919050565b6000612da0600e83613295565b9150612dab826138b6565b602082019050919050565b6000612dc3602583613295565b9150612dce826138df565b604082019050919050565b6000612de6601783613295565b9150612df18261392e565b602082019050919050565b6000612e09602483613295565b9150612e1482613957565b604082019050919050565b6000612e2c601083613295565b9150612e37826139a6565b602082019050919050565b6000612e4f602283613295565b9150612e5a826139cf565b604082019050919050565b6000612e72600683613295565b9150612e7d82613a1e565b602082019050919050565b6000612e95602583613295565b9150612ea082613a47565b604082019050919050565b612eb48161341f565b82525050565b612ec381613429565b82525050565b6000602082019050612ede6000830184612b9d565b92915050565b6000602082019050612ef96000830184612bac565b92915050565b6000602082019050612f146000830184612bbb565b92915050565b6000602082019050612f2f6000830184612bca565b92915050565b60006020820190508181036000830152612f4f8184612bd9565b905092915050565b60006040820190508181036000830152612f718185612bd9565b9050612f806020830184612eab565b9392505050565b60006020820190508181036000830152612fa081612c12565b9050919050565b60006020820190508181036000830152612fc081612c35565b9050919050565b60006020820190508181036000830152612fe081612c58565b9050919050565b6000602082019050818103600083015261300081612c7b565b9050919050565b6000602082019050818103600083015261302081612c9e565b9050919050565b6000602082019050818103600083015261304081612cc1565b9050919050565b6000602082019050818103600083015261306081612ce4565b9050919050565b6000604082019050818103600083015261308081612d07565b905061308f6020830184612eab565b92915050565b600060208201905081810360008301526130ae81612d2a565b9050919050565b600060208201905081810360008301526130ce81612d4d565b9050919050565b600060208201905081810360008301526130ee81612d70565b9050919050565b6000602082019050818103600083015261310e81612d93565b9050919050565b6000602082019050818103600083015261312e81612db6565b9050919050565b6000602082019050818103600083015261314e81612dd9565b9050919050565b6000602082019050818103600083015261316e81612dfc565b9050919050565b6000602082019050818103600083015261318e81612e1f565b9050919050565b600060208201905081810360008301526131ae81612e42565b9050919050565b600060408201905081810360008301526131ce81612e65565b90506131dd6020830184612eab565b92915050565b600060208201905081810360008301526131fc81612e88565b9050919050565b60006020820190506132186000830184612eab565b92915050565b60006020820190506132336000830184612eba565b92915050565b6000613243613254565b905061324f82826134bf565b919050565b6000604051905090565b600067ffffffffffffffff821115613279576132786135f5565b5b602082029050602081019050919050565b600081519050919050565b600082825260208201905092915050565b60006132b18261341f565b91506132bc8361341f565b9250827fffffffffffffffffffffffffffffffffffffffffffffffffffffffffffffffff038211156132f1576132f0613539565b5b828201905092915050565b60006133078261341f565b91506133128361341f565b92508261332257613321613568565b5b828204905092915050565b60006133388261341f565b91506133438361341f565b9250817fffffffffffffffffffffffffffffffffffffffffffffffffffffffffffffffff048311821515161561337c5761337b613539565b5b828202905092915050565b60006133928261341f565b915061339d8361341f565b9250828210156133b0576133af613539565b5b828203905092915050565b60006133c6826133ff565b9050919050565b60008115159050919050565b60008190506133e782613a96565b919050565b60008190506133fa82613aaa565b919050565b600073ffffffffffffffffffffffffffffffffffffffff82169050919050565b6000819050919050565b600060ff82169050919050565b6000613441826133d9565b9050919050565b6000613453826133ec565b9050919050565b60005b8381101561347857808201518184015260208101905061345d565b83811115613487576000848401525b50505050565b600060028204905060018216806134a557607f821691505b602082108114156134b9576134b86135c6565b5b50919050565b6134c882613624565b810181811067ffffffffffffffff821117156134e7576134e66135f5565b5b80604052505050565b60006134fb8261341f565b91507fffffffffffffffffffffffffffffffffffffffffffffffffffffffffffffffff82141561352e5761352d613539565b5b600182019050919050565b7f4e487b7100000000000000000000000000000000000000000000000000000000600052601160045260246000fd5b7f4e487b7100000000000000000000000000000000000000000000000000000000600052601260045260246000fd5b7f4e487b7100000000000000000000000000000000000000000000000000000000600052602160045260246000fd5b7f4e487b7100000000000000000000000000000000000000000000000000000000600052602260045260246000fd5b7f4e487b7100000000000000000000000000000000000000000000000000000000600052604160045260246000fd5b6000601f19601f8301169050919050565b7f45524332303a207472616e7366657220746f20746865207a65726f206164647260008201527f6573730000000000000000000000000000000000000000000000000000000000602082015250565b7f4e6f74206f70656e000000000000000000000000000000000000000000000000600082015250565b7f4f776e61626c653a206e6577206f776e657220697320746865207a65726f206160008201527f6464726573730000000000000000000000000000000000000000000000000000602082015250565b7f45524332303a20617070726f766520746f20746865207a65726f20616464726560008201527f7373000000000000000000000000000000000000000000000000000000000000602082015250565b7f45524332303a207472616e7366657220616d6f756e742065786365656473206260008201527f616c616e63650000000000000000000000000000000000000000000000000000602082015250565b7f4e6f742070617573656400000000000000000000000000000000000000000000600082015250565b7f4e6f742077686974656c69737465640000000000000000000000000000000000600082015250565b7f6163746976650000000000000000000000000000000000000000000000000000600082015250565b7f45524332303a207472616e7366657220616d6f756e742065786365656473206160008201527f6c6c6f77616e6365000000000000000000000000000000000000000000000000602082015250565b7f4f776e61626c653a2063616c6c6572206973206e6f7420746865206f776e6572600082015250565b7f65786365656420746f74616c206c696d69740000000000000000000000000000600082015250565b7f416c726561647920706175736564000000000000000000000000000000000000600082015250565b7f45524332303a207472616e736665722066726f6d20746865207a65726f20616460008201527f6472657373000000000000000000000000000000000000000000000000000000602082015250565b7f65786365656420696e646976696475616c206c696d6974000000000000000000600082015250565b7f45524332303a20617070726f76652066726f6d20746865207a65726f2061646460008201527f7265737300000000000000000000000000000000000000000000000000000000602082015250565b7f4e6f20636f6e747269627574696f6e7300000000000000000000000000000000600082015250565b7f746869732070726f6a65637420616c726561647920696e206f70656e2070686160008201527f7365000000000000000000000000000000000000000000000000000000000000602082015250565b7f7061757365640000000000000000000000000000000000000000000000000000600082015250565b7f45524332303a2064656372656173656420616c6c6f77616e63652062656c6f7760008201527f207a65726f000000000000000000000000000000000000000000000000000000602082015250565b60038110613aa757613aa6613597565b5b50565b60028110613abb57613aba613597565b5b50565b613ac7816133bb565b8114613ad257600080fd5b50565b613ade8161341f565b8114613ae957600080fd5b5056fea2646970667358221220ab2c57c0b4a935e0925a72dc7698dc3e9de40778afe28dd60ce55aaaf442d32e64736f6c63430008040033",
  "linkReferences": {},
  "deployedLinkReferences": {}
}