{
  "_format": "hh-sol-artifact-1",
  "contractName": "AcroICO",
  "sourceName": "contracts/AcroICO.sol",
  "abi": [
    {
      "inputs": [
        {
          "internalType": "bool",
          "name": "isTaxable",
          "type": "bool"
        }
      ],
      "stateMutability": "nonpayable",
      "type": "constructor"
    },
    {
      "anonymous": false,
      "inputs": [
        {
          "indexed": true,
          "internalType": "address",
          "name": "owner",
          "type": "address"
        },
        {
          "indexed": true,
          "internalType": "address",
          "name": "spender",
          "type": "address"
        },
        {
          "indexed": false,
          "internalType": "uint256",
          "name": "value",
          "type": "uint256"
        }
      ],
      "name": "Approval",
      "type": "event"
    },
    {
      "anonymous": false,
      "inputs": [
        {
          "indexed": true,
          "internalType": "address",
          "name": "previousOwner",
          "type": "address"
        },
        {
          "indexed": true,
          "internalType": "address",
          "name": "newOwner",
          "type": "address"
        }
      ],
      "name": "OwnershipTransferred",
      "type": "event"
    },
    {
      "anonymous": false,
      "inputs": [
        {
          "indexed": true,
          "internalType": "address",
          "name": "from",
          "type": "address"
        },
        {
          "indexed": true,
          "internalType": "address",
          "name": "to",
          "type": "address"
        },
        {
          "indexed": false,
          "internalType": "uint256",
          "name": "value",
          "type": "uint256"
        }
      ],
      "name": "Transfer",
      "type": "event"
    },
    {
      "anonymous": false,
      "inputs": [
        {
          "indexed": false,
          "internalType": "address",
          "name": "addr",
          "type": "address"
        }
      ],
      "name": "WhitelistOperations",
      "type": "event"
    },
    {
      "anonymous": false,
      "inputs": [
        {
          "indexed": false,
          "internalType": "string",
          "name": "state",
          "type": "string"
        },
        {
          "indexed": false,
          "internalType": "uint256",
          "name": "timestamp",
          "type": "uint256"
        }
      ],
      "name": "changeState",
      "type": "event"
    },
    {
      "anonymous": false,
      "inputs": [
        {
          "indexed": false,
          "internalType": "string",
          "name": "currentPhase",
          "type": "string"
        },
        {
          "indexed": false,
          "internalType": "uint256",
          "name": "timestamp",
          "type": "uint256"
        }
      ],
      "name": "phaseForwardEvent",
      "type": "event"
    },
    {
      "inputs": [
        {
          "internalType": "address[]",
          "name": "_whiteList",
          "type": "address[]"
        }
      ],
      "name": "WhitelistedCrowdsale",
      "outputs": [],
      "stateMutability": "nonpayable",
      "type": "function"
    },
    {
      "inputs": [],
      "name": "_isTaxable",
      "outputs": [
        {
          "internalType": "bool",
          "name": "",
          "type": "bool"
        }
      ],
      "stateMutability": "view",
      "type": "function"
    },
    {
      "inputs": [],
      "name": "_totalSupply",
      "outputs": [
        {
          "internalType": "uint256",
          "name": "",
          "type": "uint256"
        }
      ],
      "stateMutability": "view",
      "type": "function"
    },
    {
      "inputs": [],
      "name": "_totalTaxes",
      "outputs": [
        {
          "internalType": "uint256",
          "name": "",
          "type": "uint256"
        }
      ],
      "stateMutability": "view",
      "type": "function"
    },
    {
      "inputs": [
        {
          "internalType": "uint256",
          "name": "",
          "type": "uint256"
        }
      ],
      "name": "addressIndex",
      "outputs": [
        {
          "internalType": "address",
          "name": "",
          "type": "address"
        }
      ],
      "stateMutability": "view",
      "type": "function"
    },
    {
      "inputs": [],
      "name": "admin",
      "outputs": [
        {
          "internalType": "address",
          "name": "",
          "type": "address"
        }
      ],
      "stateMutability": "view",
      "type": "function"
    },
    {
      "inputs": [
        {
          "internalType": "address",
          "name": "owner",
          "type": "address"
        },
        {
          "internalType": "address",
          "name": "spender",
          "type": "address"
        }
      ],
      "name": "allowance",
      "outputs": [
        {
          "internalType": "uint256",
          "name": "",
          "type": "uint256"
        }
      ],
      "stateMutability": "view",
      "type": "function"
    },
    {
      "inputs": [
        {
          "internalType": "address",
          "name": "spender",
          "type": "address"
        },
        {
          "internalType": "uint256",
          "name": "amount",
          "type": "uint256"
        }
      ],
      "name": "approve",
      "outputs": [
        {
          "internalType": "bool",
          "name": "",
          "type": "bool"
        }
      ],
      "stateMutability": "nonpayable",
      "type": "function"
    },
    {
      "inputs": [
        {
          "internalType": "address",
          "name": "account",
          "type": "address"
        }
      ],
      "name": "balanceOf",
      "outputs": [
        {
          "internalType": "uint256",
          "name": "",
          "type": "uint256"
        }
      ],
      "stateMutability": "view",
      "type": "function"
    },
    {
      "inputs": [
        {
          "internalType": "address",
          "name": "_sender",
          "type": "address"
        },
        {
          "internalType": "uint256",
          "name": "_amount",
          "type": "uint256"
        }
      ],
      "name": "buyToken",
      "outputs": [],
      "stateMutability": "payable",
      "type": "function"
    },
    {
      "inputs": [
        {
          "internalType": "address",
          "name": "",
          "type": "address"
        }
      ],
      "name": "contributions",
      "outputs": [
        {
          "internalType": "uint256",
          "name": "",
          "type": "uint256"
        }
      ],
      "stateMutability": "view",
      "type": "function"
    },
    {
      "inputs": [],
      "name": "decimals",
      "outputs": [
        {
          "internalType": "uint8",
          "name": "",
          "type": "uint8"
        }
      ],
      "stateMutability": "view",
      "type": "function"
    },
    {
      "inputs": [
        {
          "internalType": "address",
          "name": "spender",
          "type": "address"
        },
        {
          "internalType": "uint256",
          "name": "subtractedValue",
          "type": "uint256"
        }
      ],
      "name": "decreaseAllowance",
      "outputs": [
        {
          "internalType": "bool",
          "name": "",
          "type": "bool"
        }
      ],
      "stateMutability": "nonpayable",
      "type": "function"
    },
    {
      "inputs": [],
      "name": "goal",
      "outputs": [
        {
          "internalType": "uint256",
          "name": "",
          "type": "uint256"
        }
      ],
      "stateMutability": "view",
      "type": "function"
    },
    {
      "inputs": [
        {
          "internalType": "address",
          "name": "spender",
          "type": "address"
        },
        {
          "internalType": "uint256",
          "name": "addedValue",
          "type": "uint256"
        }
      ],
      "name": "increaseAllowance",
      "outputs": [
        {
          "internalType": "bool",
          "name": "",
          "type": "bool"
        }
      ],
      "stateMutability": "nonpayable",
      "type": "function"
    },
    {
      "inputs": [],
      "name": "individualContributionLimit",
      "outputs": [
        {
          "internalType": "uint256",
          "name": "",
          "type": "uint256"
        }
      ],
      "stateMutability": "view",
      "type": "function"
    },
    {
      "inputs": [],
      "name": "maximumTotalPrivateContributionLimit",
      "outputs": [
        {
          "internalType": "uint256",
          "name": "",
          "type": "uint256"
        }
      ],
      "stateMutability": "view",
      "type": "function"
    },
    {
      "inputs": [],
      "name": "name",
      "outputs": [
        {
          "internalType": "string",
          "name": "",
          "type": "string"
        }
      ],
      "stateMutability": "view",
      "type": "function"
    },
    {
      "inputs": [],
      "name": "owner",
      "outputs": [
        {
          "internalType": "address",
          "name": "",
          "type": "address"
        }
      ],
      "stateMutability": "view",
      "type": "function"
    },
    {
      "inputs": [],
      "name": "pause",
      "outputs": [
        {
          "internalType": "bool",
          "name": "",
          "type": "bool"
        }
      ],
      "stateMutability": "nonpayable",
      "type": "function"
    },
    {
      "inputs": [],
      "name": "phase",
      "outputs": [
        {
          "internalType": "enum AcroICO.Phase",
          "name": "",
          "type": "uint8"
        }
      ],
      "stateMutability": "view",
      "type": "function"
    },
    {
      "inputs": [],
      "name": "phaseForward",
      "outputs": [],
      "stateMutability": "nonpayable",
      "type": "function"
    },
    {
      "inputs": [],
      "name": "rate",
      "outputs": [
        {
          "internalType": "uint8",
          "name": "",
          "type": "uint8"
        }
      ],
      "stateMutability": "view",
      "type": "function"
    },
    {
      "inputs": [],
      "name": "renounceOwnership",
      "outputs": [],
      "stateMutability": "nonpayable",
      "type": "function"
    },
    {
      "inputs": [
        {
          "internalType": "address",
          "name": "_owner",
          "type": "address"
        }
      ],
      "name": "returnContributions",
      "outputs": [
        {
          "internalType": "uint256",
          "name": "",
          "type": "uint256"
        }
      ],
      "stateMutability": "view",
      "type": "function"
    },
    {
      "inputs": [],
      "name": "returnTotalTaxes",
      "outputs": [
        {
          "internalType": "uint256",
          "name": "",
          "type": "uint256"
        }
      ],
      "stateMutability": "view",
      "type": "function"
    },
    {
      "inputs": [],
      "name": "state",
      "outputs": [
        {
          "internalType": "enum AcroICO.State",
          "name": "",
          "type": "uint8"
        }
      ],
      "stateMutability": "view",
      "type": "function"
    },
    {
      "inputs": [],
      "name": "symbol",
      "outputs": [
        {
          "internalType": "string",
          "name": "",
          "type": "string"
        }
      ],
      "stateMutability": "view",
      "type": "function"
    },
    {
      "inputs": [
        {
          "internalType": "address",
          "name": "",
          "type": "address"
        }
      ],
      "name": "taxes",
      "outputs": [
        {
          "internalType": "uint256",
          "name": "",
          "type": "uint256"
        }
      ],
      "stateMutability": "view",
      "type": "function"
    },
    {
      "inputs": [],
      "name": "totalContributions",
      "outputs": [
        {
          "internalType": "uint256",
          "name": "",
          "type": "uint256"
        }
      ],
      "stateMutability": "view",
      "type": "function"
    },
    {
      "inputs": [],
      "name": "totalSupply",
      "outputs": [
        {
          "internalType": "uint256",
          "name": "",
          "type": "uint256"
        }
      ],
      "stateMutability": "view",
      "type": "function"
    },
    {
      "inputs": [
        {
          "internalType": "address",
          "name": "recipient",
          "type": "address"
        },
        {
          "internalType": "uint256",
          "name": "amount",
          "type": "uint256"
        }
      ],
      "name": "transfer",
      "outputs": [
        {
          "internalType": "bool",
          "name": "",
          "type": "bool"
        }
      ],
      "stateMutability": "nonpayable",
      "type": "function"
    },
    {
      "inputs": [
        {
          "internalType": "address",
          "name": "sender",
          "type": "address"
        },
        {
          "internalType": "address",
          "name": "recipient",
          "type": "address"
        },
        {
          "internalType": "uint256",
          "name": "amount",
          "type": "uint256"
        }
      ],
      "name": "transferFrom",
      "outputs": [
        {
          "internalType": "bool",
          "name": "",
          "type": "bool"
        }
      ],
      "stateMutability": "nonpayable",
      "type": "function"
    },
    {
      "inputs": [
        {
          "internalType": "address",
          "name": "newOwner",
          "type": "address"
        }
      ],
      "name": "transferOwnership",
      "outputs": [],
      "stateMutability": "nonpayable",
      "type": "function"
    },
    {
      "inputs": [
        {
          "internalType": "address",
          "name": "_recipient",
          "type": "address"
        },
        {
          "internalType": "uint256",
          "name": "_amount",
          "type": "uint256"
        }
      ],
      "name": "transferToken",
      "outputs": [
        {
          "internalType": "bool",
          "name": "",
          "type": "bool"
        }
      ],
      "stateMutability": "nonpayable",
      "type": "function"
    },
    {
      "inputs": [],
      "name": "unpause",
      "outputs": [
        {
          "internalType": "bool",
          "name": "",
          "type": "bool"
        }
      ],
      "stateMutability": "nonpayable",
      "type": "function"
    },
    {
      "inputs": [
        {
          "internalType": "address",
          "name": "",
          "type": "address"
        }
      ],
      "name": "whitelist",
      "outputs": [
        {
          "internalType": "bool",
          "name": "",
          "type": "bool"
        }
      ],
      "stateMutability": "view",
      "type": "function"
    }
  ],
  "bytecode": "0x60806040526207a12060065569065a4da25d3016c00000600c556005600d60026101000a81548160ff021916908360ff160217905550600060105560006011556000601260006101000a81548160ff0219169083151502179055503480156200006757600080fd5b50604051620043c1380380620043c183398181016040528101906200008d919062000609565b6040518060400160405280600981526020017f4163726f546f6b656e00000000000000000000000000000000000000000000008152506040518060400160405280600381526020017f4143520000000000000000000000000000000000000000000000000000000000815250620001196200010d620002f260201b60201c565b620002fa60201b60201c565b81600490805190602001906200013192919062000542565b5080600590805190602001906200014a92919062000542565b50505033600760006101000a81548173ffffffffffffffffffffffffffffffffffffffff021916908373ffffffffffffffffffffffffffffffffffffffff160217905550620001a233600654620003be60201b60201c565b3373ffffffffffffffffffffffffffffffffffffffff16600073ffffffffffffffffffffffffffffffffffffffff167fddf252ad1be2c89b69c2b068fc378daa952ba7f163c4a11628f55a4df523b3ef6006546040516200020491906200068f565b60405180910390a36000600d60006101000a81548160ff0219169083600281111562000259577f4e487b7100000000000000000000000000000000000000000000000000000000600052602160045260246000fd5b02179055506000600d60016101000a81548160ff02191690836001811115620002ab577f4e487b7100000000000000000000000000000000000000000000000000000000600052602160045260246000fd5b021790555080601260006101000a81548160ff02191690831515021790555069032d26d12e980b600000600e81905550685150ae84a8cdf00000600f819055505062000807565b600033905090565b60008060009054906101000a900473ffffffffffffffffffffffffffffffffffffffff169050816000806101000a81548173ffffffffffffffffffffffffffffffffffffffff021916908373ffffffffffffffffffffffffffffffffffffffff1602179055508173ffffffffffffffffffffffffffffffffffffffff168173ffffffffffffffffffffffffffffffffffffffff167f8be0079c531659141344cd1fd0a4f28419497f9722a3daafe3b4186f6b6457e060405160405180910390a35050565b600073ffffffffffffffffffffffffffffffffffffffff168273ffffffffffffffffffffffffffffffffffffffff16141562000431576040517f08c379a000000000000000000000000000000000000000000000000000000000815260040162000428906200066d565b60405180910390fd5b62000445600083836200053860201b60201c565b8060036000828254620004599190620006bd565b9250508190555080600160008473ffffffffffffffffffffffffffffffffffffffff1673ffffffffffffffffffffffffffffffffffffffff1681526020019081526020016000206000828254620004b19190620006bd565b925050819055508173ffffffffffffffffffffffffffffffffffffffff16600073ffffffffffffffffffffffffffffffffffffffff167fddf252ad1be2c89b69c2b068fc378daa952ba7f163c4a11628f55a4df523b3ef836040516200051891906200068f565b60405180910390a362000534600083836200053d60201b60201c565b5050565b505050565b505050565b828054620005509062000730565b90600052602060002090601f016020900481019282620005745760008555620005c0565b82601f106200058f57805160ff1916838001178555620005c0565b82800160010185558215620005c0579182015b82811115620005bf578251825591602001919060010190620005a2565b5b509050620005cf9190620005d3565b5090565b5b80821115620005ee576000816000905550600101620005d4565b5090565b6000815190506200060381620007ed565b92915050565b6000602082840312156200061c57600080fd5b60006200062c84828501620005f2565b91505092915050565b600062000644601f83620006ac565b91506200065182620007c4565b602082019050919050565b620006678162000726565b82525050565b60006020820190508181036000830152620006888162000635565b9050919050565b6000602082019050620006a660008301846200065c565b92915050565b600082825260208201905092915050565b6000620006ca8262000726565b9150620006d78362000726565b9250827fffffffffffffffffffffffffffffffffffffffffffffffffffffffffffffffff038211156200070f576200070e62000766565b5b828201905092915050565b60008115159050919050565b6000819050919050565b600060028204905060018216806200074957607f821691505b6020821081141562000760576200075f62000795565b5b50919050565b7f4e487b7100000000000000000000000000000000000000000000000000000000600052601160045260246000fd5b7f4e487b7100000000000000000000000000000000000000000000000000000000600052602260045260246000fd5b7f45524332303a206d696e7420746f20746865207a65726f206164647265737300600082015250565b620007f8816200071a565b81146200080457600080fd5b50565b613baa80620008176000396000f3fe60806040526004361061021a5760003560e01c806370a0823111610123578063b1c9fe6e116100ab578063d08b6faf1161006f578063d08b6faf14610832578063dd62ed3e14610849578063ed36647214610886578063f2fde38b146108b1578063f851a440146108da5761021a565b8063b1c9fe6e14610737578063c19d93fb14610762578063c53144191461078d578063c9e3c0a3146107ca578063cc1a2865146107f55761021a565b80638da5cb5b116100f25780638da5cb5b1461062a57806395d89b41146106555780639b19251a14610680578063a457c2d7146106bd578063a9059cbb146106fa5761021a565b806370a0823114610580578063715018a6146105bd57806371a73d60146105d45780638456cb59146105ff5761021a565b806337c08923116101a65780634019388311610175578063401938831461049657806342e94c90146104c15780635a7bd6f6146104fe57806367fb42ff1461053b57806368f8fc10146105645761021a565b806337c08923146103d857806339509351146104035780633eaaf86b146104405780633f4ba83a1461046b5761021a565b806323b872dd116101ed57806323b872dd146102ef5780632c4e722e1461032c5780633002921714610357578063313ce5671461038257806331908c80146103ad5761021a565b806306fdde031461021f578063095ea7b31461024a5780631072cbea1461028757806318160ddd146102c4575b600080fd5b34801561022b57600080fd5b50610234610905565b604051610241919061304f565b60405180910390f35b34801561025657600080fd5b50610271600480360381019061026c9190612c57565b610997565b60405161027e9190612ffe565b60405180910390f35b34801561029357600080fd5b506102ae60048036038101906102a99190612c57565b6109b5565b6040516102bb9190612ffe565b60405180910390f35b3480156102d057600080fd5b506102d96109ee565b6040516102e691906132dd565b60405180910390f35b3480156102fb57600080fd5b5061031660048036038101906103119190612c08565b6109f8565b6040516103239190612ffe565b60405180910390f35b34801561033857600080fd5b50610341610af0565b60405161034e91906132f8565b60405180910390f35b34801561036357600080fd5b5061036c610b03565b6040516103799190612ffe565b60405180910390f35b34801561038e57600080fd5b50610397610b16565b6040516103a491906132f8565b60405180910390f35b3480156103b957600080fd5b506103c2610b1f565b6040516103cf91906132dd565b60405180910390f35b3480156103e457600080fd5b506103ed610b25565b6040516103fa91906132dd565b60405180910390f35b34801561040f57600080fd5b5061042a60048036038101906104259190612c57565b610b2b565b6040516104379190612ffe565b60405180910390f35b34801561044c57600080fd5b50610455610bd7565b60405161046291906132dd565b60405180910390f35b34801561047757600080fd5b50610480610bdd565b60405161048d9190612ffe565b60405180910390f35b3480156104a257600080fd5b506104ab610dab565b6040516104b891906132dd565b60405180910390f35b3480156104cd57600080fd5b506104e860048036038101906104e39190612ba3565b610db1565b6040516104f591906132dd565b60405180910390f35b34801561050a57600080fd5b5061052560048036038101906105209190612ba3565b610dc9565b60405161053291906132dd565b60405180910390f35b34801561054757600080fd5b50610562600480360381019061055d9190612c93565b610e12565b005b61057e60048036038101906105799190612c57565b61106c565b005b34801561058c57600080fd5b506105a760048036038101906105a29190612ba3565b6115d8565b6040516105b491906132dd565b60405180910390f35b3480156105c957600080fd5b506105d2611621565b005b3480156105e057600080fd5b506105e96116a9565b6040516105f691906132dd565b60405180910390f35b34801561060b57600080fd5b506106146116b3565b6040516106219190612ffe565b60405180910390f35b34801561063657600080fd5b5061063f611882565b60405161064c9190612fe3565b60405180910390f35b34801561066157600080fd5b5061066a6118ab565b604051610677919061304f565b60405180910390f35b34801561068c57600080fd5b506106a760048036038101906106a29190612ba3565b61193d565b6040516106b49190612ffe565b60405180910390f35b3480156106c957600080fd5b506106e460048036038101906106df9190612c57565b61195d565b6040516106f19190612ffe565b60405180910390f35b34801561070657600080fd5b50610721600480360381019061071c9190612c57565b611a48565b60405161072e9190612ffe565b60405180910390f35b34801561074357600080fd5b5061074c611a66565b6040516107599190613019565b60405180910390f35b34801561076e57600080fd5b50610777611a79565b6040516107849190613034565b60405180910390f35b34801561079957600080fd5b506107b460048036038101906107af9190612ba3565b611a8c565b6040516107c191906132dd565b60405180910390f35b3480156107d657600080fd5b506107df611aa4565b6040516107ec91906132dd565b60405180910390f35b34801561080157600080fd5b5061081c60048036038101906108179190612cd4565b611aaa565b6040516108299190612fe3565b60405180910390f35b34801561083e57600080fd5b50610847611ae9565b005b34801561085557600080fd5b50610870600480360381019061086b9190612bcc565b611f94565b60405161087d91906132dd565b60405180910390f35b34801561089257600080fd5b5061089b61201b565b6040516108a891906132dd565b60405180910390f35b3480156108bd57600080fd5b506108d860048036038101906108d39190612ba3565b612021565b005b3480156108e657600080fd5b506108ef612119565b6040516108fc9190612fe3565b60405180910390f35b60606004805461091490613567565b80601f016020809104026020016040519081016040528092919081815260200182805461094090613567565b801561098d5780601f106109625761010080835404028352916020019161098d565b820191906000526020600020905b81548152906001019060200180831161097057829003601f168201915b5050505050905090565b60006109ab6109a461213f565b8484612147565b6001905092915050565b60006109e4600760009054906101000a900473ffffffffffffffffffffffffffffffffffffffff168484612312565b6001905092915050565b6000600354905090565b6000610a05848484612312565b6000600260008673ffffffffffffffffffffffffffffffffffffffff1673ffffffffffffffffffffffffffffffffffffffff1681526020019081526020016000206000610a5061213f565b73ffffffffffffffffffffffffffffffffffffffff1673ffffffffffffffffffffffffffffffffffffffff16815260200190815260200160002054905082811015610ad0576040517f08c379a0000000000000000000000000000000000000000000000000000000008152600401610ac7906131ef565b60405180910390fd5b610ae485610adc61213f565b858403612147565b60019150509392505050565b600d60029054906101000a900460ff1681565b601260009054906101000a900460ff1681565b60006012905090565b600f5481565b60105481565b6000610bcd610b3861213f565b848460026000610b4661213f565b73ffffffffffffffffffffffffffffffffffffffff1673ffffffffffffffffffffffffffffffffffffffff16815260200190815260200160002060008873ffffffffffffffffffffffffffffffffffffffff1673ffffffffffffffffffffffffffffffffffffffff16815260200190815260200160002054610bc89190613380565b612147565b6001905092915050565b60065481565b6000610be761213f565b73ffffffffffffffffffffffffffffffffffffffff16610c05611882565b73ffffffffffffffffffffffffffffffffffffffff1614610c5b576040517f08c379a0000000000000000000000000000000000000000000000000000000008152600401610c529061320f565b60405180910390fd5b600180811115610c94577f4e487b7100000000000000000000000000000000000000000000000000000000600052602160045260246000fd5b600d60019054906101000a900460ff166001811115610cdc577f4e487b7100000000000000000000000000000000000000000000000000000000600052602160045260246000fd5b14610d1c576040517f08c379a0000000000000000000000000000000000000000000000000000000008152600401610d1390613181565b60405180910390fd5b6000600d60016101000a81548160ff02191690836001811115610d68577f4e487b7100000000000000000000000000000000000000000000000000000000600052602160045260246000fd5b02179055507f82babb3957189acd0cc129732f47f3363c22d08b68562a033a71b659a86a782042604051610d9c91906131c1565b60405180910390a16001905090565b600c5481565b60086020528060005260406000206000915090505481565b6000600860008373ffffffffffffffffffffffffffffffffffffffff1673ffffffffffffffffffffffffffffffffffffffff168152602001908152602001600020549050919050565b60005b815181101561106857600160096000848481518110610e5d577f4e487b7100000000000000000000000000000000000000000000000000000000600052603260045260246000fd5b602002602001015173ffffffffffffffffffffffffffffffffffffffff1673ffffffffffffffffffffffffffffffffffffffff16815260200190815260200160002060006101000a81548160ff021916908315150217905550600b828281518110610ef1577f4e487b7100000000000000000000000000000000000000000000000000000000600052603260045260246000fd5b60200260200101519080600181540180825580915050600190039060005260206000200160009091909190916101000a81548173ffffffffffffffffffffffffffffffffffffffff021916908373ffffffffffffffffffffffffffffffffffffffff1602179055507fa1f52fc9611211ef098d80010b285b7b6a26ee5554285184c4380f1c440dd21d828281518110610fb3577f4e487b7100000000000000000000000000000000000000000000000000000000600052603260045260246000fd5b6020026020010151604051610fc89190612fe3565b60405180910390a160006008600084848151811061100f577f4e487b7100000000000000000000000000000000000000000000000000000000600052603260045260246000fd5b602002602001015173ffffffffffffffffffffffffffffffffffffffff1673ffffffffffffffffffffffffffffffffffffffff168152602001908152602001600020819055508080611060906135ca565b915050610e15565b5050565b600060018111156110a6577f4e487b7100000000000000000000000000000000000000000000000000000000600052602160045260246000fd5b600d60019054906101000a900460ff1660018111156110ee577f4e487b7100000000000000000000000000000000000000000000000000000000600052602160045260246000fd5b1461112e576040517f08c379a000000000000000000000000000000000000000000000000000000000815260040161112590613141565b60405180910390fd5b60006002811115611168577f4e487b7100000000000000000000000000000000000000000000000000000000600052602160045260246000fd5b600d60009054906101000a900460ff1660028111156111b0577f4e487b7100000000000000000000000000000000000000000000000000000000600052602160045260246000fd5b14156112055760006111c183612596565b905080611203576040517f08c379a00000000000000000000000000000000000000000000000000000000081526004016111fa906131a1565b60405180910390fd5b505b60028081111561123e577f4e487b7100000000000000000000000000000000000000000000000000000000600052602160045260246000fd5b600d60009054906101000a900460ff166002811115611286577f4e487b7100000000000000000000000000000000000000000000000000000000600052602160045260246000fd5b1461145d57600f5481600860008573ffffffffffffffffffffffffffffffffffffffff1673ffffffffffffffffffffffffffffffffffffffff168152602001908152602001600020546112d99190613380565b111561131a576040517f08c379a000000000000000000000000000000000000000000000000000000000815260040161131190613121565b60405180910390fd5b600e548160105461132b9190613380565b111561136c576040517f08c379a000000000000000000000000000000000000000000000000000000000815260040161136390613161565b60405180910390fd5b6000600860008473ffffffffffffffffffffffffffffffffffffffff1673ffffffffffffffffffffffffffffffffffffffff16815260200190815260200160002054141561141857600b829080600181540180825580915050600190039060005260206000200160009091909190916101000a81548173ffffffffffffffffffffffffffffffffffffffff021916908373ffffffffffffffffffffffffffffffffffffffff1602179055505b80600860008473ffffffffffffffffffffffffffffffffffffffff1673ffffffffffffffffffffffffffffffffffffffff168152602001908152602001600020819055505b600280811115611496577f4e487b7100000000000000000000000000000000000000000000000000000000600052602160045260246000fd5b600d60009054906101000a900460ff1660028111156114de577f4e487b7100000000000000000000000000000000000000000000000000000000600052602160045260246000fd5b14156115bb57600e54811115611529576040517f08c379a000000000000000000000000000000000000000000000000000000000815260040161152090613161565b60405180910390fd5b600061154482601260009054906101000a900460ff16612604565b905060006115518361264b565b905080601160008282546115659190613380565b925050819055506000600d60029054906101000a900460ff1660ff16670de0b6b3a76400008461159591906133d6565b61159f9190613407565b90506115ab8582610997565b506115b685826109b5565b505050505b80601060008282546115cd9190613380565b925050819055505050565b6000600160008373ffffffffffffffffffffffffffffffffffffffff1673ffffffffffffffffffffffffffffffffffffffff168152602001908152602001600020549050919050565b61162961213f565b73ffffffffffffffffffffffffffffffffffffffff16611647611882565b73ffffffffffffffffffffffffffffffffffffffff161461169d576040517f08c379a00000000000000000000000000000000000000000000000000000000081526004016116949061320f565b60405180910390fd5b6116a7600061267b565b565b6000601154905090565b60006116bd61213f565b73ffffffffffffffffffffffffffffffffffffffff166116db611882565b73ffffffffffffffffffffffffffffffffffffffff1614611731576040517f08c379a00000000000000000000000000000000000000000000000000000000081526004016117289061320f565b60405180910390fd5b6000600181111561176b577f4e487b7100000000000000000000000000000000000000000000000000000000600052602160045260246000fd5b600d60019054906101000a900460ff1660018111156117b3577f4e487b7100000000000000000000000000000000000000000000000000000000600052602160045260246000fd5b146117f3576040517f08c379a00000000000000000000000000000000000000000000000000000000081526004016117ea90613141565b60405180910390fd5b6001600d60016101000a81548160ff0219169083600181111561183f577f4e487b7100000000000000000000000000000000000000000000000000000000600052602160045260246000fd5b02179055507f82babb3957189acd0cc129732f47f3363c22d08b68562a033a71b659a86a782042604051611873919061328f565b60405180910390a16001905090565b60008060009054906101000a900473ffffffffffffffffffffffffffffffffffffffff16905090565b6060600580546118ba90613567565b80601f01602080910402602001604051908101604052809291908181526020018280546118e690613567565b80156119335780601f1061190857610100808354040283529160200191611933565b820191906000526020600020905b81548152906001019060200180831161191657829003601f168201915b5050505050905090565b60096020528060005260406000206000915054906101000a900460ff1681565b6000806002600061196c61213f565b73ffffffffffffffffffffffffffffffffffffffff1673ffffffffffffffffffffffffffffffffffffffff16815260200190815260200160002060008573ffffffffffffffffffffffffffffffffffffffff1673ffffffffffffffffffffffffffffffffffffffff16815260200190815260200160002054905082811015611a29576040517f08c379a0000000000000000000000000000000000000000000000000000000008152600401611a20906132bd565b60405180910390fd5b611a3d611a3461213f565b85858403612147565b600191505092915050565b6000611a5c611a5561213f565b8484612312565b6001905092915050565b600d60009054906101000a900460ff1681565b600d60019054906101000a900460ff1681565b600a6020528060005260406000206000915090505481565b60115481565b600b8181548110611aba57600080fd5b906000526020600020016000915054906101000a900473ffffffffffffffffffffffffffffffffffffffff1681565b611af161213f565b73ffffffffffffffffffffffffffffffffffffffff16611b0f611882565b73ffffffffffffffffffffffffffffffffffffffff1614611b65576040517f08c379a0000000000000000000000000000000000000000000000000000000008152600401611b5c9061320f565b60405180910390fd5b60006001811115611b9f577f4e487b7100000000000000000000000000000000000000000000000000000000600052602160045260246000fd5b600d60019054906101000a900460ff166001811115611be7577f4e487b7100000000000000000000000000000000000000000000000000000000600052602160045260246000fd5b14611c27576040517f08c379a0000000000000000000000000000000000000000000000000000000008152600401611c1e90613141565b60405180910390fd5b600280811115611c60577f4e487b7100000000000000000000000000000000000000000000000000000000600052602160045260246000fd5b600d60009054906101000a900460ff166002811115611ca8577f4e487b7100000000000000000000000000000000000000000000000000000000600052602160045260246000fd5b1415611ce9576040517f08c379a0000000000000000000000000000000000000000000000000000000008152600401611ce09061326f565b60405180910390fd5b606060006002811115611d25577f4e487b7100000000000000000000000000000000000000000000000000000000600052602160045260246000fd5b600d60009054906101000a900460ff166002811115611d6d577f4e487b7100000000000000000000000000000000000000000000000000000000600052602160045260246000fd5b1415611e27576001600d60006101000a81548160ff02191690836002811115611dbf577f4e487b7100000000000000000000000000000000000000000000000000000000600052602160045260246000fd5b02179055506040518060400160405280600d81526020017f47656e6572616c207068617365000000000000000000000000000000000000008152509050601054600c54611e0c9190613461565b600e81905550683635c9adc5dea00000600f81905550611f58565b60016002811115611e61577f4e487b7100000000000000000000000000000000000000000000000000000000600052602160045260246000fd5b600d60009054906101000a900460ff166002811115611ea9577f4e487b7100000000000000000000000000000000000000000000000000000000600052602160045260246000fd5b1415611f57576002600d60006101000a81548160ff02191690836002811115611efb577f4e487b7100000000000000000000000000000000000000000000000000000000600052602160045260246000fd5b02179055506040518060400160405280600a81526020017f4f70656e207068617365000000000000000000000000000000000000000000008152509050601054600c54611f489190613461565b600e81905550611f5661273f565b5b5b7febf2a8ea927c08d1b08795a4b87754edef9babb78556726ac030a658efe679128142604051611f89929190613071565b60405180910390a150565b6000600260008473ffffffffffffffffffffffffffffffffffffffff1673ffffffffffffffffffffffffffffffffffffffff16815260200190815260200160002060008373ffffffffffffffffffffffffffffffffffffffff1673ffffffffffffffffffffffffffffffffffffffff16815260200190815260200160002054905092915050565b600e5481565b61202961213f565b73ffffffffffffffffffffffffffffffffffffffff16612047611882565b73ffffffffffffffffffffffffffffffffffffffff161461209d576040517f08c379a00000000000000000000000000000000000000000000000000000000081526004016120949061320f565b60405180910390fd5b600073ffffffffffffffffffffffffffffffffffffffff168173ffffffffffffffffffffffffffffffffffffffff16141561210d576040517f08c379a0000000000000000000000000000000000000000000000000000000008152600401612104906130c1565b60405180910390fd5b6121168161267b565b50565b600760009054906101000a900473ffffffffffffffffffffffffffffffffffffffff1681565b600033905090565b600073ffffffffffffffffffffffffffffffffffffffff168373ffffffffffffffffffffffffffffffffffffffff1614156121b7576040517f08c379a00000000000000000000000000000000000000000000000000000000081526004016121ae9061324f565b60405180910390fd5b600073ffffffffffffffffffffffffffffffffffffffff168273ffffffffffffffffffffffffffffffffffffffff161415612227576040517f08c379a000000000000000000000000000000000000000000000000000000000815260040161221e906130e1565b60405180910390fd5b80600260008573ffffffffffffffffffffffffffffffffffffffff1673ffffffffffffffffffffffffffffffffffffffff16815260200190815260200160002060008473ffffffffffffffffffffffffffffffffffffffff1673ffffffffffffffffffffffffffffffffffffffff168152602001908152602001600020819055508173ffffffffffffffffffffffffffffffffffffffff168373ffffffffffffffffffffffffffffffffffffffff167f8c5be1e5ebec7d5bd14f71427d1e84f3dd0314c0f7b2291e5b200ac8c7c3b9258360405161230591906132dd565b60405180910390a3505050565b600073ffffffffffffffffffffffffffffffffffffffff168373ffffffffffffffffffffffffffffffffffffffff161415612382576040517f08c379a00000000000000000000000000000000000000000000000000000000081526004016123799061322f565b60405180910390fd5b600073ffffffffffffffffffffffffffffffffffffffff168273ffffffffffffffffffffffffffffffffffffffff1614156123f2576040517f08c379a00000000000000000000000000000000000000000000000000000000081526004016123e9906130a1565b60405180910390fd5b6123fd838383612aad565b6000600160008573ffffffffffffffffffffffffffffffffffffffff1673ffffffffffffffffffffffffffffffffffffffff16815260200190815260200160002054905081811015612484576040517f08c379a000000000000000000000000000000000000000000000000000000000815260040161247b90613101565b60405180910390fd5b818103600160008673ffffffffffffffffffffffffffffffffffffffff1673ffffffffffffffffffffffffffffffffffffffff1681526020019081526020016000208190555081600160008573ffffffffffffffffffffffffffffffffffffffff1673ffffffffffffffffffffffffffffffffffffffff16815260200190815260200160002060008282546125199190613380565b925050819055508273ffffffffffffffffffffffffffffffffffffffff168473ffffffffffffffffffffffffffffffffffffffff167fddf252ad1be2c89b69c2b068fc378daa952ba7f163c4a11628f55a4df523b3ef8460405161257d91906132dd565b60405180910390a3612590848484612ab2565b50505050565b600060011515600960008473ffffffffffffffffffffffffffffffffffffffff1673ffffffffffffffffffffffffffffffffffffffff16815260200190815260200160002060009054906101000a900460ff16151514156125fa57600190506125ff565b600090505b919050565b6000808390506001151583151514156126415761263e6062612630606487612ab790919063ffffffff16565b612acd90919063ffffffff16565b90505b8091505092915050565b60006126746002612666606485612ab790919063ffffffff16565b612acd90919063ffffffff16565b9050919050565b60008060009054906101000a900473ffffffffffffffffffffffffffffffffffffffff169050816000806101000a81548173ffffffffffffffffffffffffffffffffffffffff021916908373ffffffffffffffffffffffffffffffffffffffff1602179055508173ffffffffffffffffffffffffffffffffffffffff168173ffffffffffffffffffffffffffffffffffffffff167f8be0079c531659141344cd1fd0a4f28419497f9722a3daafe3b4186f6b6457e060405160405180910390a35050565b60005b600b80549050811015612aaa57600061280d60086000600b8581548110612792577f4e487b7100000000000000000000000000000000000000000000000000000000600052603260045260246000fd5b9060005260206000200160009054906101000a900473ffffffffffffffffffffffffffffffffffffffff1673ffffffffffffffffffffffffffffffffffffffff1673ffffffffffffffffffffffffffffffffffffffff16815260200190815260200160002054601260009054906101000a900460ff16612604565b90506000600d60029054906101000a900460ff1660ff16670de0b6b3a76400008361283891906133d6565b6128429190613407565b90506128b2600b8481548110612881577f4e487b7100000000000000000000000000000000000000000000000000000000600052603260045260246000fd5b9060005260206000200160009054906101000a900473ffffffffffffffffffffffffffffffffffffffff1682610997565b50612921600b84815481106128f0577f4e487b7100000000000000000000000000000000000000000000000000000000600052603260045260246000fd5b9060005260206000200160009054906101000a900473ffffffffffffffffffffffffffffffffffffffff16826109b5565b5060006129d060086000600b8781548110612965577f4e487b7100000000000000000000000000000000000000000000000000000000600052603260045260246000fd5b9060005260206000200160009054906101000a900473ffffffffffffffffffffffffffffffffffffffff1673ffffffffffffffffffffffffffffffffffffffff1673ffffffffffffffffffffffffffffffffffffffff1681526020019081526020016000205461264b565b905080601160008282546129e49190613380565b92505081905550600060086000600b8781548110612a2b577f4e487b7100000000000000000000000000000000000000000000000000000000600052603260045260246000fd5b9060005260206000200160009054906101000a900473ffffffffffffffffffffffffffffffffffffffff1673ffffffffffffffffffffffffffffffffffffffff1673ffffffffffffffffffffffffffffffffffffffff168152602001908152602001600020819055505050508080612aa2906135ca565b915050612742565b50565b505050565b505050565b60008183612ac591906133d6565b905092915050565b60008183612adb9190613407565b905092915050565b6000612af6612af184613338565b613313565b90508083825260208201905082856020860282011115612b1557600080fd5b60005b85811015612b455781612b2b8882612b4f565b845260208401935060208301925050600181019050612b18565b5050509392505050565b600081359050612b5e81613b46565b92915050565b600082601f830112612b7557600080fd5b8135612b85848260208601612ae3565b91505092915050565b600081359050612b9d81613b5d565b92915050565b600060208284031215612bb557600080fd5b6000612bc384828501612b4f565b91505092915050565b60008060408385031215612bdf57600080fd5b6000612bed85828601612b4f565b9250506020612bfe85828601612b4f565b9150509250929050565b600080600060608486031215612c1d57600080fd5b6000612c2b86828701612b4f565b9350506020612c3c86828701612b4f565b9250506040612c4d86828701612b8e565b9150509250925092565b60008060408385031215612c6a57600080fd5b6000612c7885828601612b4f565b9250506020612c8985828601612b8e565b9150509250929050565b600060208284031215612ca557600080fd5b600082013567ffffffffffffffff811115612cbf57600080fd5b612ccb84828501612b64565b91505092915050565b600060208284031215612ce657600080fd5b6000612cf484828501612b8e565b91505092915050565b612d0681613495565b82525050565b612d15816134a7565b82525050565b612d2481613510565b82525050565b612d3381613522565b82525050565b6000612d4482613364565b612d4e818561336f565b9350612d5e818560208601613534565b612d67816136fe565b840191505092915050565b6000612d7f60238361336f565b9150612d8a8261370f565b604082019050919050565b6000612da260268361336f565b9150612dad8261375e565b604082019050919050565b6000612dc560228361336f565b9150612dd0826137ad565b604082019050919050565b6000612de860268361336f565b9150612df3826137fc565b604082019050919050565b6000612e0b601b8361336f565b9150612e168261384b565b602082019050919050565b6000612e2e60168361336f565b9150612e3982613874565b602082019050919050565b6000612e5160168361336f565b9150612e5c8261389d565b602082019050919050565b6000612e74601a8361336f565b9150612e7f826138c6565b602082019050919050565b6000612e97601a8361336f565b9150612ea2826138ef565b602082019050919050565b6000612eba60068361336f565b9150612ec582613918565b602082019050919050565b6000612edd60288361336f565b9150612ee882613941565b604082019050919050565b6000612f0060208361336f565b9150612f0b82613990565b602082019050919050565b6000612f2360258361336f565b9150612f2e826139b9565b604082019050919050565b6000612f4660248361336f565b9150612f5182613a08565b604082019050919050565b6000612f6960228361336f565b9150612f7482613a57565b604082019050919050565b6000612f8c60068361336f565b9150612f9782613aa6565b602082019050919050565b6000612faf60258361336f565b9150612fba82613acf565b604082019050919050565b612fce816134f9565b82525050565b612fdd81613503565b82525050565b6000602082019050612ff86000830184612cfd565b92915050565b60006020820190506130136000830184612d0c565b92915050565b600060208201905061302e6000830184612d1b565b92915050565b60006020820190506130496000830184612d2a565b92915050565b600060208201905081810360008301526130698184612d39565b905092915050565b6000604082019050818103600083015261308b8185612d39565b905061309a6020830184612fc5565b9392505050565b600060208201905081810360008301526130ba81612d72565b9050919050565b600060208201905081810360008301526130da81612d95565b9050919050565b600060208201905081810360008301526130fa81612db8565b9050919050565b6000602082019050818103600083015261311a81612ddb565b9050919050565b6000602082019050818103600083015261313a81612dfe565b9050919050565b6000602082019050818103600083015261315a81612e21565b9050919050565b6000602082019050818103600083015261317a81612e44565b9050919050565b6000602082019050818103600083015261319a81612e67565b9050919050565b600060208201905081810360008301526131ba81612e8a565b9050919050565b600060408201905081810360008301526131da81612ead565b90506131e96020830184612fc5565b92915050565b6000602082019050818103600083015261320881612ed0565b9050919050565b6000602082019050818103600083015261322881612ef3565b9050919050565b6000602082019050818103600083015261324881612f16565b9050919050565b6000602082019050818103600083015261326881612f39565b9050919050565b6000602082019050818103600083015261328881612f5c565b9050919050565b600060408201905081810360008301526132a881612f7f565b90506132b76020830184612fc5565b92915050565b600060208201905081810360008301526132d681612fa2565b9050919050565b60006020820190506132f26000830184612fc5565b92915050565b600060208201905061330d6000830184612fd4565b92915050565b600061331d61332e565b90506133298282613599565b919050565b6000604051905090565b600067ffffffffffffffff821115613353576133526136cf565b5b602082029050602081019050919050565b600081519050919050565b600082825260208201905092915050565b600061338b826134f9565b9150613396836134f9565b9250827fffffffffffffffffffffffffffffffffffffffffffffffffffffffffffffffff038211156133cb576133ca613613565b5b828201905092915050565b60006133e1826134f9565b91506133ec836134f9565b9250826133fc576133fb613642565b5b828204905092915050565b6000613412826134f9565b915061341d836134f9565b9250817fffffffffffffffffffffffffffffffffffffffffffffffffffffffffffffffff048311821515161561345657613455613613565b5b828202905092915050565b600061346c826134f9565b9150613477836134f9565b92508282101561348a57613489613613565b5b828203905092915050565b60006134a0826134d9565b9050919050565b60008115159050919050565b60008190506134c182613b1e565b919050565b60008190506134d482613b32565b919050565b600073ffffffffffffffffffffffffffffffffffffffff82169050919050565b6000819050919050565b600060ff82169050919050565b600061351b826134b3565b9050919050565b600061352d826134c6565b9050919050565b60005b83811015613552578082015181840152602081019050613537565b83811115613561576000848401525b50505050565b6000600282049050600182168061357f57607f821691505b60208210811415613593576135926136a0565b5b50919050565b6135a2826136fe565b810181811067ffffffffffffffff821117156135c1576135c06136cf565b5b80604052505050565b60006135d5826134f9565b91507fffffffffffffffffffffffffffffffffffffffffffffffffffffffffffffffff82141561360857613607613613565b5b600182019050919050565b7f4e487b7100000000000000000000000000000000000000000000000000000000600052601160045260246000fd5b7f4e487b7100000000000000000000000000000000000000000000000000000000600052601260045260246000fd5b7f4e487b7100000000000000000000000000000000000000000000000000000000600052602160045260246000fd5b7f4e487b7100000000000000000000000000000000000000000000000000000000600052602260045260246000fd5b7f4e487b7100000000000000000000000000000000000000000000000000000000600052604160045260246000fd5b6000601f19601f8301169050919050565b7f45524332303a207472616e7366657220746f20746865207a65726f206164647260008201527f6573730000000000000000000000000000000000000000000000000000000000602082015250565b7f4f776e61626c653a206e6577206f776e657220697320746865207a65726f206160008201527f6464726573730000000000000000000000000000000000000000000000000000602082015250565b7f45524332303a20617070726f766520746f20746865207a65726f20616464726560008201527f7373000000000000000000000000000000000000000000000000000000000000602082015250565b7f45524332303a207472616e7366657220616d6f756e742065786365656473206260008201527f616c616e63650000000000000000000000000000000000000000000000000000602082015250565b7f6578636565642074686520696e646976696475616c206c696d69740000000000600082015250565b7f746869732070726f6a6563742069732070617573656400000000000000000000600082015250565b7f6578636565642074686520746f74616c206c696d697400000000000000000000600082015250565b7f746869732070726f6a656374206973206e6f7420706175736564000000000000600082015250565b7f61646472657373206973206e6f742077686974656c6973746564000000000000600082015250565b7f6163746976650000000000000000000000000000000000000000000000000000600082015250565b7f45524332303a207472616e7366657220616d6f756e742065786365656473206160008201527f6c6c6f77616e6365000000000000000000000000000000000000000000000000602082015250565b7f4f776e61626c653a2063616c6c6572206973206e6f7420746865206f776e6572600082015250565b7f45524332303a207472616e736665722066726f6d20746865207a65726f20616460008201527f6472657373000000000000000000000000000000000000000000000000000000602082015250565b7f45524332303a20617070726f76652066726f6d20746865207a65726f2061646460008201527f7265737300000000000000000000000000000000000000000000000000000000602082015250565b7f746869732070726f6a65637420616c726561647920696e206f70656e2070686160008201527f7365000000000000000000000000000000000000000000000000000000000000602082015250565b7f7061757365640000000000000000000000000000000000000000000000000000600082015250565b7f45524332303a2064656372656173656420616c6c6f77616e63652062656c6f7760008201527f207a65726f000000000000000000000000000000000000000000000000000000602082015250565b60038110613b2f57613b2e613671565b5b50565b60028110613b4357613b42613671565b5b50565b613b4f81613495565b8114613b5a57600080fd5b50565b613b66816134f9565b8114613b7157600080fd5b5056fea2646970667358221220afcf585f45cc0e8428680c8eed29e1af0234d37fd813dd9d34c2ac2c7c4d5b3564736f6c63430008040033",
  "linkReferences": {},
  "deployedLinkReferences": {}
}